{
  "contractName": "AuctionNft",
  "abi": [
    {
      "inputs": [
        {
          "internalType": "address",
          "name": "_auctionERC721",
          "type": "address"
        }
      ],
      "stateMutability": "nonpayable",
      "type": "constructor"
    },
    {
      "anonymous": false,
      "inputs": [
        {
          "indexed": false,
          "internalType": "uint256",
          "name": "_auctionId",
          "type": "uint256"
        }
      ],
      "name": "AuctionEnded",
      "type": "event"
    },
    {
      "anonymous": false,
      "inputs": [
        {
          "indexed": false,
          "internalType": "address",
          "name": "_auctioneer",
          "type": "address"
        }
      ],
      "name": "BidClaimed",
      "type": "event"
    },
    {
      "anonymous": false,
      "inputs": [
        {
          "indexed": false,
          "internalType": "address",
          "name": "_bidder",
          "type": "address"
        }
      ],
      "name": "BidWithdrawn",
      "type": "event"
    },
    {
      "anonymous": false,
      "inputs": [
        {
          "indexed": false,
          "internalType": "address",
          "name": "_currentWinner",
          "type": "address"
        },
        {
          "indexed": false,
          "internalType": "uint256",
          "name": "_highestBid",
          "type": "uint256"
        }
      ],
      "name": "HighestBidIncreased",
      "type": "event"
    },
    {
      "anonymous": false,
      "inputs": [
        {
          "indexed": false,
          "internalType": "address",
          "name": "_auctioneer",
          "type": "address"
        },
        {
          "indexed": false,
          "internalType": "uint256",
          "name": "_auctionId",
          "type": "uint256"
        }
      ],
      "name": "NewAuctionCreated",
      "type": "event"
    },
    {
      "anonymous": false,
      "inputs": [
        {
          "indexed": true,
          "internalType": "address",
          "name": "_auctionERC721",
          "type": "address"
        },
        {
          "indexed": false,
          "internalType": "uint256",
          "name": "_timestamp",
          "type": "uint256"
        }
      ],
      "name": "NewAuctionERC721",
      "type": "event"
    },
    {
      "anonymous": false,
      "inputs": [
        {
          "indexed": false,
          "internalType": "address",
          "name": "_creator",
          "type": "address"
        },
        {
          "indexed": false,
          "internalType": "uint256",
          "name": "_auctionId",
          "type": "uint256"
        },
        {
          "indexed": false,
          "internalType": "uint256",
          "name": "_startPrice",
          "type": "uint256"
        },
        {
          "indexed": false,
          "internalType": "uint256",
          "name": "_highestBid",
          "type": "uint256"
        }
      ],
      "name": "NewAuctionStarted",
      "type": "event"
    },
    {
      "anonymous": false,
      "inputs": [
        {
          "indexed": false,
          "internalType": "uint256",
          "name": "_tokenId",
          "type": "uint256"
        },
        {
          "indexed": false,
          "internalType": "address",
          "name": "_nftWinner",
          "type": "address"
        }
      ],
      "name": "NftWithdrawn",
      "type": "event"
    },
    {
      "inputs": [],
      "name": "auctionCount",
      "outputs": [
        {
          "internalType": "uint256",
          "name": "",
          "type": "uint256"
        }
      ],
      "stateMutability": "view",
      "type": "function",
      "constant": true
    },
    {
      "inputs": [],
      "name": "auctionERC721",
      "outputs": [
        {
          "internalType": "contract IAuctionERC721",
          "name": "",
          "type": "address"
        }
      ],
      "stateMutability": "view",
      "type": "function",
      "constant": true
    },
    {
      "inputs": [
        {
          "internalType": "uint256",
          "name": "",
          "type": "uint256"
        }
      ],
      "name": "auctions",
      "outputs": [
        {
          "internalType": "address",
          "name": "tokenERC721",
          "type": "address"
        },
        {
          "internalType": "address payable",
          "name": "auctioneer",
          "type": "address"
        },
        {
          "internalType": "address payable",
          "name": "currentWinner",
          "type": "address"
        },
        {
          "internalType": "uint256",
          "name": "auctionId",
          "type": "uint256"
        },
        {
          "internalType": "enum AuctionNft.AuctionStatus",
          "name": "auctionStatus",
          "type": "uint8"
        },
        {
          "internalType": "uint256",
          "name": "highestBid",
          "type": "uint256"
        },
        {
          "internalType": "uint256",
          "name": "startPrice",
          "type": "uint256"
        },
        {
          "internalType": "uint256",
          "name": "tokenId",
          "type": "uint256"
        },
        {
          "internalType": "bool",
          "name": "auctionComplete",
          "type": "bool"
        }
      ],
      "stateMutability": "view",
      "type": "function",
      "constant": true
    },
    {
      "inputs": [
        {
          "internalType": "uint256",
          "name": "",
          "type": "uint256"
        }
      ],
      "name": "nftAuctions",
      "outputs": [
        {
          "internalType": "address",
          "name": "tokenERC721",
          "type": "address"
        },
        {
          "internalType": "address payable",
          "name": "auctioneer",
          "type": "address"
        },
        {
          "internalType": "address payable",
          "name": "currentWinner",
          "type": "address"
        },
        {
          "internalType": "uint256",
          "name": "auctionId",
          "type": "uint256"
        },
        {
          "internalType": "enum AuctionNft.AuctionStatus",
          "name": "auctionStatus",
          "type": "uint8"
        },
        {
          "internalType": "uint256",
          "name": "highestBid",
          "type": "uint256"
        },
        {
          "internalType": "uint256",
          "name": "startPrice",
          "type": "uint256"
        },
        {
          "internalType": "uint256",
          "name": "tokenId",
          "type": "uint256"
        },
        {
          "internalType": "bool",
          "name": "auctionComplete",
          "type": "bool"
        }
      ],
      "stateMutability": "view",
      "type": "function",
      "constant": true
    },
    {
      "inputs": [
        {
          "internalType": "address",
          "name": "",
          "type": "address"
        },
        {
          "internalType": "address",
          "name": "",
          "type": "address"
        },
        {
          "internalType": "uint256",
          "name": "",
          "type": "uint256"
        },
        {
          "internalType": "bytes",
          "name": "",
          "type": "bytes"
        }
      ],
      "name": "onERC721Received",
      "outputs": [
        {
          "internalType": "bytes4",
          "name": "",
          "type": "bytes4"
        }
      ],
      "stateMutability": "nonpayable",
      "type": "function"
    },
    {
      "inputs": [],
      "name": "owner",
      "outputs": [
        {
          "internalType": "address",
          "name": "",
          "type": "address"
        }
      ],
      "stateMutability": "view",
      "type": "function",
      "constant": true
    },
    {
      "inputs": [],
      "name": "toggleStop",
      "outputs": [],
      "stateMutability": "nonpayable",
      "type": "function"
    },
    {
      "inputs": [
        {
          "internalType": "address",
          "name": "_tokenERC721",
          "type": "address"
        },
        {
          "internalType": "uint256",
          "name": "_startPrice",
          "type": "uint256"
        },
        {
          "internalType": "uint256",
          "name": "_tokenId",
          "type": "uint256"
        }
      ],
      "name": "createAuction",
      "outputs": [
        {
          "internalType": "uint256",
          "name": "_accountId",
          "type": "uint256"
        }
      ],
      "stateMutability": "nonpayable",
      "type": "function"
    },
    {
      "inputs": [
        {
          "internalType": "uint256",
          "name": "_auctionId",
          "type": "uint256"
        }
      ],
      "name": "bidAuction",
      "outputs": [],
      "stateMutability": "payable",
      "type": "function",
      "payable": true
    },
    {
      "inputs": [
        {
          "internalType": "uint256",
          "name": "_auctionId",
          "type": "uint256"
        }
      ],
      "name": "endAuction",
      "outputs": [],
      "stateMutability": "nonpayable",
      "type": "function"
    },
    {
      "inputs": [
        {
          "internalType": "uint256",
          "name": "_auctionId",
          "type": "uint256"
        }
      ],
      "name": "withdrawNft",
      "outputs": [],
      "stateMutability": "nonpayable",
      "type": "function"
    },
    {
      "inputs": [
        {
          "internalType": "uint256",
          "name": "_auctionId",
          "type": "uint256"
        }
      ],
      "name": "withdrawBid",
      "outputs": [],
      "stateMutability": "nonpayable",
      "type": "function"
    },
    {
      "inputs": [
        {
          "internalType": "uint256",
          "name": "_auctionId",
          "type": "uint256"
        }
      ],
      "name": "withdrawHighestBid",
      "outputs": [],
      "stateMutability": "nonpayable",
      "type": "function"
    },
    {
      "inputs": [
        {
          "internalType": "address",
          "name": "_auctionERC721",
          "type": "address"
        }
      ],
      "name": "setContractERC721",
      "outputs": [],
      "stateMutability": "nonpayable",
      "type": "function"
    },
    {
      "inputs": [],
      "name": "getNumberOfAuctions",
      "outputs": [
        {
          "internalType": "uint256",
          "name": "_nbOfAuctions",
          "type": "uint256"
        }
      ],
      "stateMutability": "view",
      "type": "function",
      "constant": true
    },
    {
      "inputs": [
        {
          "internalType": "uint256",
          "name": "_auctionId",
          "type": "uint256"
        }
      ],
      "name": "getAuctionInfo",
      "outputs": [
        {
          "internalType": "address",
          "name": "_tokenERC721",
          "type": "address"
        },
        {
          "internalType": "address",
          "name": "_auctioneer",
          "type": "address"
        },
        {
          "internalType": "address",
          "name": "_currentWinner",
          "type": "address"
        },
        {
          "internalType": "uint256",
          "name": "auctionId",
          "type": "uint256"
        },
        {
          "internalType": "enum AuctionNft.AuctionStatus",
          "name": "_auctionStatus",
          "type": "uint8"
        },
        {
          "internalType": "uint256",
          "name": "_highestBid",
          "type": "uint256"
        },
        {
          "internalType": "uint256",
          "name": "_startPrice",
          "type": "uint256"
        },
        {
          "internalType": "uint256",
          "name": "_tokenId",
          "type": "uint256"
        },
        {
          "internalType": "bool",
          "name": "_auctionComplete",
          "type": "bool"
        }
      ],
      "stateMutability": "view",
      "type": "function",
      "constant": true
    }
  ],
  "bytecode": "0x60806040526000600360006101000a81548160ff02191690831515021790555034801561002b57600080fd5b506040516200245b3803806200245b8339818101604052602081101561005057600080fd5b810190808051906020019092919050505033600660006101000a81548173ffffffffffffffffffffffffffffffffffffffff021916908373ffffffffffffffffffffffffffffffffffffffff1602179055506100b1816100b760201b60201c565b5061020b565b3373ffffffffffffffffffffffffffffffffffffffff16600660009054906101000a900473ffffffffffffffffffffffffffffffffffffffff1673ffffffffffffffffffffffffffffffffffffffff161461017a576040517f08c379a000000000000000000000000000000000000000000000000000000000815260040180806020018281038252601f8152602001807f796f7520617265206e6f7420617574686f72697a656420666f7220746869730081525060200191505060405180910390fd5b806000806101000a81548173ffffffffffffffffffffffffffffffffffffffff021916908373ffffffffffffffffffffffffffffffffffffffff1602179055508073ffffffffffffffffffffffffffffffffffffffff167fc3ed467480c03780e2ec27d1db0b8101f06a31fc4b8dca9290c5511ec3b6df6b426040518082815260200191505060405180910390a250565b612240806200021b6000396000f3fe6080604052600436106100f35760003560e01c8063910efae81161008a578063abb9405111610059578063abb94051146105cd578063b9a2de3a14610646578063f52c617414610681578063fc3fc4ed146106bc576100f3565b8063910efae81461047a57806393cde51a146104b55780639a70eef11461058b578063a0c209d2146105a2576100f3565b8063571a26a0116100c6578063571a26a0146102f457806364a7d7c7146103ca5780638b3e491d146103f85780638da5cb5b14610439576100f3565b80630eaaf4c8146100f85780631000f29814610133578063150b7a02146101845780632ad71573146102c9575b600080fd5b34801561010457600080fd5b506101316004803603602081101561011b57600080fd5b8101908080359060200190929190505050610792565b005b34801561013f57600080fd5b506101826004803603602081101561015657600080fd5b81019080803573ffffffffffffffffffffffffffffffffffffffff169060200190929190505050610ad2565b005b34801561019057600080fd5b50610294600480360360808110156101a757600080fd5b81019080803573ffffffffffffffffffffffffffffffffffffffff169060200190929190803573ffffffffffffffffffffffffffffffffffffffff169060200190929190803590602001909291908035906020019064010000000081111561020e57600080fd5b82018360208201111561022057600080fd5b8035906020019184600183028401116401000000008311171561024257600080fd5b91908080601f016020809104026020016040519081016040528093929190818152602001838380828437600081840152601f19601f820116905080830192505050505050509192919290505050610c26565b60405180827bffffffffffffffffffffffffffffffffffffffffffffffffffffffff1916815260200191505060405180910390f35b3480156102d557600080fd5b506102de610c3a565b6040518082815260200191505060405180910390f35b34801561030057600080fd5b5061032d6004803603602081101561031757600080fd5b8101908080359060200190929190505050610c40565b604051808a73ffffffffffffffffffffffffffffffffffffffff1681526020018973ffffffffffffffffffffffffffffffffffffffff1681526020018873ffffffffffffffffffffffffffffffffffffffff16815260200187815260200186600381111561039757fe5b81526020018581526020018481526020018381526020018215158152602001995050505050505050505060405180910390f35b6103f6600480360360208110156103e057600080fd5b8101908080359060200190929190505050610d08565b005b34801561040457600080fd5b5061040d610f8b565b604051808273ffffffffffffffffffffffffffffffffffffffff16815260200191505060405180910390f35b34801561044557600080fd5b5061044e610faf565b604051808273ffffffffffffffffffffffffffffffffffffffff16815260200191505060405180910390f35b34801561048657600080fd5b506104b36004803603602081101561049d57600080fd5b8101908080359060200190929190505050610fd5565b005b3480156104c157600080fd5b506104ee600480360360208110156104d857600080fd5b8101908080359060200190929190505050611337565b604051808a73ffffffffffffffffffffffffffffffffffffffff1681526020018973ffffffffffffffffffffffffffffffffffffffff1681526020018873ffffffffffffffffffffffffffffffffffffffff16815260200187815260200186600381111561055857fe5b81526020018581526020018481526020018381526020018215158152602001995050505050505050505060405180910390f35b34801561059757600080fd5b506105a061140c565b005b3480156105ae57600080fd5b506105b76114ec565b6040518082815260200191505060405180910390f35b3480156105d957600080fd5b50610630600480360360608110156105f057600080fd5b81019080803573ffffffffffffffffffffffffffffffffffffffff16906020019092919080359060200190929190803590602001909291905050506114f9565b6040518082815260200191505060405180910390f35b34801561065257600080fd5b5061067f6004803603602081101561066957600080fd5b81019080803590602001909291905050506118f0565b005b34801561068d57600080fd5b506106ba600480360360208110156106a457600080fd5b8101908080359060200190929190505050611a61565b005b3480156106c857600080fd5b506106f5600480360360208110156106df57600080fd5b8101908080359060200190929190505050611cea565b604051808a73ffffffffffffffffffffffffffffffffffffffff1681526020018973ffffffffffffffffffffffffffffffffffffffff1681526020018873ffffffffffffffffffffffffffffffffffffffff16815260200187815260200186600381111561075f57fe5b81526020018581526020018481526020018381526020018215158152602001995050505050505050505060405180910390f35b60001515600360009054906101000a900460ff1615151461081b576040517f08c379a00000000000000000000000000000000000000000000000000000000081526004018080602001828103825260178152602001807f6369726375697420627265616b657220656e61626c656400000000000000000081525060200191505060405180910390fd5b6000600160008381526020019081526020016000209050600115158160080160009054906101000a900460ff161515146108bd576040517f08c379a00000000000000000000000000000000000000000000000000000000081526004018080602001828103825260188152602001807f41756374696f6e206d75737420626520636f6d706c657465000000000000000081525060200191505060405180910390fd5b6000600460003373ffffffffffffffffffffffffffffffffffffffff1673ffffffffffffffffffffffffffffffffffffffff1681526020019081526020016000206000848152602001908152602001600020541415610984576040517f08c379a00000000000000000000000000000000000000000000000000000000081526004018080602001828103825260128152602001807f6e6f2062696420746f207769746864726177000000000000000000000000000081525060200191505060405180910390fd5b6000600460003373ffffffffffffffffffffffffffffffffffffffff1673ffffffffffffffffffffffffffffffffffffffff16815260200190815260200160002060008481526020019081526020016000205490506000811115610a80576000600460003373ffffffffffffffffffffffffffffffffffffffff1673ffffffffffffffffffffffffffffffffffffffff1681526020019081526020016000206000858152602001908152602001600020819055503373ffffffffffffffffffffffffffffffffffffffff166108fc829081150290604051600060405180830381858888f19350505050158015610a7e573d6000803e3d6000fd5b505b7fe4b292cd5a573e1d0cf3c41a161b96cd6639bf4523291e9efbd663177c99d74433604051808273ffffffffffffffffffffffffffffffffffffffff16815260200191505060405180910390a1505050565b3373ffffffffffffffffffffffffffffffffffffffff16600660009054906101000a900473ffffffffffffffffffffffffffffffffffffffff1673ffffffffffffffffffffffffffffffffffffffff1614610b95576040517f08c379a000000000000000000000000000000000000000000000000000000000815260040180806020018281038252601f8152602001807f796f7520617265206e6f7420617574686f72697a656420666f7220746869730081525060200191505060405180910390fd5b806000806101000a81548173ffffffffffffffffffffffffffffffffffffffff021916908373ffffffffffffffffffffffffffffffffffffffff1602179055508073ffffffffffffffffffffffffffffffffffffffff167fc3ed467480c03780e2ec27d1db0b8101f06a31fc4b8dca9290c5511ec3b6df6b426040518082815260200191505060405180910390a250565b600063150b7a0260e01b9050949350505050565b60025481565b60016020528060005260406000206000915090508060000160009054906101000a900473ffffffffffffffffffffffffffffffffffffffff16908060010160009054906101000a900473ffffffffffffffffffffffffffffffffffffffff16908060020160009054906101000a900473ffffffffffffffffffffffffffffffffffffffff16908060030154908060040160009054906101000a900460ff16908060050154908060060154908060070154908060080160009054906101000a900460ff16905089565b600060016000838152602001908152602001600020905060016003811115610d2c57fe5b8160040160009054906101000a900460ff166003811115610d4957fe5b14610dbc576040517f08c379a000000000000000000000000000000000000000000000000000000000815260040180806020018281038252601b8152602001807f41756374696f6e206973206e6f74206269646162626c6520796574000000000081525060200191505060405180910390fd5b600081600501541415610dda5780600601543411610dd957600080fd5b5b80600501543411610e53576040517f08c379a00000000000000000000000000000000000000000000000000000000081526004018080602001828103825260138152602001807f626964206e6f74206869676820656e6f7567680000000000000000000000000081525060200191505060405180910390fd5b6000816005015414610ee6578060050154600460008360020160009054906101000a900473ffffffffffffffffffffffffffffffffffffffff1673ffffffffffffffffffffffffffffffffffffffff1673ffffffffffffffffffffffffffffffffffffffff1681526020019081526020016000206000848152602001908152602001600020600082825401925050819055505b348160050181905550338160020160006101000a81548173ffffffffffffffffffffffffffffffffffffffff021916908373ffffffffffffffffffffffffffffffffffffffff1602179055507ff4757a49b326036464bec6fe419a4ae38c8a02ce3e68bf0809674f6aab8ad3003334604051808373ffffffffffffffffffffffffffffffffffffffff1681526020018281526020019250505060405180910390a15050565b60008054906101000a900473ffffffffffffffffffffffffffffffffffffffff1681565b600660009054906101000a900473ffffffffffffffffffffffffffffffffffffffff1681565b6000600160008381526020019081526020016000209050600115158160080160009054906101000a900460ff16151514611077576040517f08c379a00000000000000000000000000000000000000000000000000000000081526004018080602001828103825260198152602001807f41756374696f6e206d75737420626520636f6d706c657465640000000000000081525060200191505060405180910390fd5b6002600381111561108457fe5b8160040160009054906101000a900460ff1660038111156110a157fe5b14611114576040517f08c379a00000000000000000000000000000000000000000000000000000000081526004018080602001828103825260158152602001807f41756374696f6e206e6f7420656e64656420796574000000000000000000000081525060200191505060405180910390fd5b8060020160009054906101000a900473ffffffffffffffffffffffffffffffffffffffff1673ffffffffffffffffffffffffffffffffffffffff163373ffffffffffffffffffffffffffffffffffffffff16146111bc576040517f08c379a00000000000000000000000000000000000000000000000000000000081526004018080602001828103825260238152602001806121e86023913960400191505060405180910390fd5b6003808111156111c857fe5b8160040160009054906101000a900460ff1660038111156111e557fe5b50508060000160009054906101000a900473ffffffffffffffffffffffffffffffffffffffff1673ffffffffffffffffffffffffffffffffffffffff166342842e0e303384600701546040518463ffffffff1660e01b8152600401808473ffffffffffffffffffffffffffffffffffffffff1681526020018373ffffffffffffffffffffffffffffffffffffffff1681526020018281526020019350505050600060405180830381600087803b15801561129e57600080fd5b505af11580156112b2573d6000803e3d6000fd5b505050507f86a3374ba35fb0c6f52fad391c301c68cb35fc2dfca56d552513608af2dc3d6c81600701548260020160009054906101000a900473ffffffffffffffffffffffffffffffffffffffff16604051808381526020018273ffffffffffffffffffffffffffffffffffffffff1681526020019250505060405180910390a15050565b6005818154811061134457fe5b90600052602060002090600902016000915090508060000160009054906101000a900473ffffffffffffffffffffffffffffffffffffffff16908060010160009054906101000a900473ffffffffffffffffffffffffffffffffffffffff16908060020160009054906101000a900473ffffffffffffffffffffffffffffffffffffffff16908060030154908060040160009054906101000a900460ff16908060050154908060060154908060070154908060080160009054906101000a900460ff16905089565b3373ffffffffffffffffffffffffffffffffffffffff16600660009054906101000a900473ffffffffffffffffffffffffffffffffffffffff1673ffffffffffffffffffffffffffffffffffffffff16146114cf576040517f08c379a000000000000000000000000000000000000000000000000000000000815260040180806020018281038252601f8152602001807f796f7520617265206e6f7420617574686f72697a656420666f7220746869730081525060200191505060405180910390fd5b6001600360006101000a81548160ff021916908315150217905550565b6000600580549050905090565b60006115036120de565b6040518061012001604052808673ffffffffffffffffffffffffffffffffffffffff1681526020013373ffffffffffffffffffffffffffffffffffffffff168152602001600073ffffffffffffffffffffffffffffffffffffffff16815260200160025481526020016000600381111561157957fe5b815260200160008152602001858152602001848152602001600015158152509050600581908060018154018082558091505060019003906000526020600020906009020160009091909190915060008201518160000160006101000a81548173ffffffffffffffffffffffffffffffffffffffff021916908373ffffffffffffffffffffffffffffffffffffffff16021790555060208201518160010160006101000a81548173ffffffffffffffffffffffffffffffffffffffff021916908373ffffffffffffffffffffffffffffffffffffffff16021790555060408201518160020160006101000a81548173ffffffffffffffffffffffffffffffffffffffff021916908373ffffffffffffffffffffffffffffffffffffffff1602179055506060820151816003015560808201518160040160006101000a81548160ff021916908360038111156116c957fe5b021790555060a0820151816005015560c0820151816006015560e082015181600701556101008201518160080160006101000a81548160ff02191690831515021790555050508060016000600254815260200190815260200160002060008201518160000160006101000a81548173ffffffffffffffffffffffffffffffffffffffff021916908373ffffffffffffffffffffffffffffffffffffffff16021790555060208201518160010160006101000a81548173ffffffffffffffffffffffffffffffffffffffff021916908373ffffffffffffffffffffffffffffffffffffffff16021790555060408201518160020160006101000a81548173ffffffffffffffffffffffffffffffffffffffff021916908373ffffffffffffffffffffffffffffffffffffffff1602179055506060820151816003015560808201518160040160006101000a81548160ff0219169083600381111561182857fe5b021790555060a0820151816005015560c0820151816006015560e082015181600701556101008201518160080160006101000a81548160ff02191690831515021790555090505061187a600254611ee1565b6002600081548092919060010191905055507f6761564db36e731a0f30bd12df9cbb4d1bf73acc82096f20663bf7dd993fdacb33600254604051808373ffffffffffffffffffffffffffffffffffffffff1681526020018281526020019250505060405180910390a16002549150509392505050565b60006001600083815260200190815260200160002090506001600381111561191457fe5b8160040160009054906101000a900460ff16600381111561193157fe5b14611987576040517f08c379a00000000000000000000000000000000000000000000000000000000081526004018080602001828103825260248152602001806121c46024913960400191505060405180910390fd5b3373ffffffffffffffffffffffffffffffffffffffff168160010160009054906101000a900473ffffffffffffffffffffffffffffffffffffffff1673ffffffffffffffffffffffffffffffffffffffff16146119e357600080fd5b60028160040160006101000a81548160ff02191690836003811115611a0457fe5b021790555060018160080160006101000a81548160ff0219169083151502179055507f45806e512b1f4f10e33e8b3cb64d1d11d998d8c554a95e0841fc1c701278bd5d826040518082815260200191505060405180910390a15050565b60001515600360009054906101000a900460ff16151514611aea576040517f08c379a00000000000000000000000000000000000000000000000000000000081526004018080602001828103825260178152602001807f6369726375697420627265616b657220656e61626c656400000000000000000081525060200191505060405180910390fd5b6000600160008381526020019081526020016000209050600115158160080160009054906101000a900460ff16151514611b8c576040517f08c379a00000000000000000000000000000000000000000000000000000000081526004018080602001828103825260168152602001807f41756374696f6e206d757374206265206163746976650000000000000000000081525060200191505060405180910390fd5b8060010160009054906101000a900473ffffffffffffffffffffffffffffffffffffffff1673ffffffffffffffffffffffffffffffffffffffff163373ffffffffffffffffffffffffffffffffffffffff1614611c34576040517f08c379a000000000000000000000000000000000000000000000000000000000815260040180806020018281038252602781526020018061217a6027913960400191505060405180910390fd5b6000816005015490506000811115611c9857600082600501819055503373ffffffffffffffffffffffffffffffffffffffff166108fc829081150290604051600060405180830381858888f19350505050158015611c96573d6000803e3d6000fd5b505b7f78f1d0b64e72ddc09a2e9e6d495c4e97c893c89ebabaf824c6f08ce9f94ceaf233604051808273ffffffffffffffffffffffffffffffffffffffff16815260200191505060405180910390a1505050565b6000806000806000806000806000611d006120de565b600160008c8152602001908152602001600020604051806101200160405290816000820160009054906101000a900473ffffffffffffffffffffffffffffffffffffffff1673ffffffffffffffffffffffffffffffffffffffff1673ffffffffffffffffffffffffffffffffffffffff1681526020016001820160009054906101000a900473ffffffffffffffffffffffffffffffffffffffff1673ffffffffffffffffffffffffffffffffffffffff1673ffffffffffffffffffffffffffffffffffffffff1681526020016002820160009054906101000a900473ffffffffffffffffffffffffffffffffffffffff1673ffffffffffffffffffffffffffffffffffffffff1673ffffffffffffffffffffffffffffffffffffffff168152602001600382015481526020016004820160009054906101000a900460ff166003811115611e4957fe5b6003811115611e5457fe5b81526020016005820154815260200160068201548152602001600782015481526020016008820160009054906101000a900460ff1615151515815250509050806000015181602001518260400151836060015184608001518560a001518660c001518760e00151886101000151995099509950995099509950995099509950509193959799909294969850565b600060016000838152602001908152602001600020905060006003811115611f0557fe5b8160040160009054906101000a900460ff166003811115611f2257fe5b14611f78576040517f08c379a00000000000000000000000000000000000000000000000000000000081526004018080602001828103825260238152602001806121a16023913960400191505060405180910390fd5b8060000160009054906101000a900473ffffffffffffffffffffffffffffffffffffffff1673ffffffffffffffffffffffffffffffffffffffff166342842e0e333084600701546040518463ffffffff1660e01b8152600401808473ffffffffffffffffffffffffffffffffffffffff1681526020018373ffffffffffffffffffffffffffffffffffffffff1681526020018281526020019350505050600060405180830381600087803b15801561202f57600080fd5b505af1158015612043573d6000803e3d6000fd5b5050505060018160040160006101000a81548160ff0219169083600381111561206857fe5b02179055507f9b1d51aaa80e9b8f56dc82526e9acc4610f1a9d7ae8e515a96298aeeba9d611b338383600601548460050154604051808573ffffffffffffffffffffffffffffffffffffffff16815260200184815260200183815260200182815260200194505050505060405180910390a15050565b604051806101200160405280600073ffffffffffffffffffffffffffffffffffffffff168152602001600073ffffffffffffffffffffffffffffffffffffffff168152602001600073ffffffffffffffffffffffffffffffffffffffff168152602001600081526020016000600381111561215557fe5b8152602001600081526020016000815260200160008152602001600015158152509056fe796f7520617265206e6f74207468652061756374696f6e6565722c206e69636520747279203a2941756374696f6e20697320616c7265616479206c697665206f722066696e697368656441756374696f6e206e6f74206269646461626c65206e6f72206372656174656420796574796f7520617265206e6f74207468652077696e6e65722c206e69636520747279203a29a2646970667358221220713ef7a27459d94f079b57c9a779acac68477ea5e98b3bf37e483cf00eacf9c764736f6c634300060c0033",
  "immutableReferences": {},
  "source": "pragma solidity ^0.6.0;\n\n/// @title A contract to handle auctions for NFTs\n/// @author Thibault\n\nimport \"node_modules/@openzeppelin/contracts/token/ERC721/IERC721.sol\";\nimport \"node_modules/@openzeppelin/contracts/access/Ownable.sol\";\nimport \"@openzeppelin/contracts/math/SafeMath.sol\";\n\n//below interface used for the AuctionNft contract to be able to receive AuctionNft\nimport \"@openzeppelin/contracts/token/ERC721/IERC721Receiver.sol\";\nimport \"@openzeppelin/contracts/token/ERC721/ERC721Holder.sol\";\nimport \"contracts/interfaces/IAuctionERC721.sol\";\n\n/**\n * @title Inheritance\n * @dev Our contract needs to support safeTransfers\n */\ncontract AuctionNft is ERC721Holder{\n\n  //we get the address so that we can call the functions directly (potentially future features)\n  IAuctionERC721 public auctionERC721;\n\n  //mapping of auctionId to AuctionDetails\n  mapping (uint256 => AuctionDetails) public auctions;\n\n  //counter for number of auctions\n  uint256 public auctionCount;\n\n  bool private stopped = false;\n\n  // Allowed withdrawals of previous bids\n  // pull over push design\n  //\"a bidder can bid on different auctions a specific amount\"\n  mapping(address => mapping (uint256 => uint256)) pendingReturns;\n\n  //enum to check auction status\n  enum AuctionStatus { NotStarted, Bidding, EndAuction , AuctionClaimed}\n\n  struct AuctionDetails {\n    address tokenERC721;\n    address payable auctioneer;\n    address payable currentWinner;\n    //ERC721 nftContract; //will initially be the address provided by msg.sender when filling a box maybe so that nftContract: ERC721(address);\n    uint auctionId;\n    AuctionStatus auctionStatus;\n    uint256 highestBid;\n    uint256 startPrice;\n    uint256 tokenId;\n    bool auctionComplete;\n    //address[] bidders;\n    //uint minimumIncrement;\n  }\n\n  AuctionDetails[] public nftAuctions;\n\n  address public owner;\n\n  event NewAuctionERC721(address indexed _auctionERC721, uint _timestamp);\n  event NewAuctionCreated(address _auctioneer, uint _auctionId);\n  event HighestBidIncreased(address _currentWinner, uint _highestBid);\n  event NewAuctionStarted(address _creator, uint _auctionId, uint _startPrice, uint _highestBid);\n  event AuctionEnded(uint _auctionId);\n  event NftWithdrawn(uint _tokenId, address _nftWinner);\n  event BidWithdrawn(address _bidder);\n  event BidClaimed(address _auctioneer);\n\n  modifier onlyOwner() {\n    require(owner == msg.sender, \"you are not authorized for this\");\n    _;\n  }\n\n  modifier stopInEmergency() {\n    require(stopped == false, \"circuit breaker enabled\");\n    _;\n  }\n\n\n  constructor(address _auctionERC721)\n  public\n  {\n    owner = msg.sender;\n    setContractERC721(_auctionERC721);\n  }\n\n  //either we are going to use the below or the transfer function\n\n  //present in ERC721Holder but will it work??\n  /*\n  function onERC721Received(address _operator, address _from, uint256 _tokenId, bytes _data)\n  external\n  returns(bytes4) {\n    return 0x150b7a02;\n  }\n  */\n  function toggleStop()\n  onlyOwner\n  public\n  {\n    stopped = true;\n  }\n  /**\n     * @dev Function to create an auction\n     * @param _tokenERC721 which is the address of the deployed contract used to create our NFT\n     * @param _startPrice start price of the auction\n     * @param _tokenId tokenid of the NFT to auction\n     * @return _accountId updated\n     */\n  function createAuction(address _tokenERC721, uint256 _startPrice, uint _tokenId)\n  public\n  returns (uint _accountId)\n  {\n    //require(auctionERC721.ownerOf(_tokenId) == msg.sender);\n\n    AuctionDetails memory newAuction = AuctionDetails({\n      tokenERC721 : _tokenERC721,\n      auctioneer : msg.sender,\n      currentWinner : address(0),\n      auctionId : auctionCount,\n      auctionStatus : AuctionStatus.NotStarted,\n      highestBid : 0,\n      startPrice : _startPrice,\n      tokenId : _tokenId,\n      auctionComplete : false\n      });\n\n    nftAuctions.push(newAuction);\n    auctions[auctionCount] = newAuction;\n\n    //let's start the function internally first\n    //the transferFrom in the below function should succeed else the entire createAuction call will revert\n    startAuction(auctionCount);\n\n    auctionCount ++;\n    emit NewAuctionCreated(msg.sender, auctionCount);\n\n    return auctionCount;\n  }\n\n  /**\n     * @dev Internal function called from createAuction to actually start the auction\n     * @param _auctionId as parameter\n     */\n  function startAuction (uint _auctionId)\n  internal\n  {\n    AuctionDetails storage details = auctions[_auctionId];\n    require(details.auctionStatus == AuctionStatus.NotStarted, \"Auction is already live or finished\");\n    IERC721(details.tokenERC721).safeTransferFrom(msg.sender, address(this), details.tokenId); //not possible to use require here as safeTransferFrom doesn't return anything\n    //require(IERC721(details.tokenERC721).transferFrom(msg.sender, address(this), details.tokenId), \"token transfer failed\");\n    details.auctionStatus = AuctionStatus.Bidding;\n    emit NewAuctionStarted(msg.sender, _auctionId, details.startPrice, details.highestBid);\n  }\n\n  /**\n     * @dev External function to bid on a created auction\n     * @dev Payable as it receives ether\n     * @param _auctionId as parameter\n     */\n  function bidAuction (uint _auctionId)\n  external\n  payable\n  {\n    AuctionDetails storage details = auctions[_auctionId];\n    require(details.auctionStatus == AuctionStatus.Bidding, \"Auction is not bidabble yet\");\n    if(details.highestBid == 0)\n    {\n      require(msg.value > details.startPrice);\n    }\n    require(msg.value > details.highestBid, \"bid not high enough\");\n    if(details.highestBid != 0) {\n      pendingReturns[details.currentWinner][_auctionId] += details.highestBid;\n    }\n    details.highestBid = msg.value;\n    details.currentWinner = msg.sender;\n    emit HighestBidIncreased(msg.sender, msg.value);\n  }\n\n  /**\n     * @dev Function for an auctioneer to end an auction\n     * @param _auctionId as parameter\n     */\n  function endAuction (uint _auctionId)\n  public\n  {\n    AuctionDetails storage details = auctions[_auctionId];\n    require(details.auctionStatus == AuctionStatus.Bidding, \"Auction not biddable nor created yet\");\n    require(details.auctioneer == msg.sender);\n    details.auctionStatus = AuctionStatus.EndAuction;\n    details.auctionComplete = true;\n    emit AuctionEnded(_auctionId);\n  }\n\n  /**\n     * @dev Function to claim an NFT for a winner to be called once the auction is over\n     * @param _auctionId as parameter\n     */\n  function withdrawNft (uint256 _auctionId)\n  public\n  {\n    AuctionDetails storage details = auctions[_auctionId];\n    require(details.auctionComplete == true, \"Auction must be completed\");\n    require(details.auctionStatus == AuctionStatus.EndAuction, \"Auction not ended yet\");\n    require(msg.sender == details.currentWinner, \"you are not the winner, nice try :)\");\n    details.auctionStatus == AuctionStatus.AuctionClaimed; //reentrancy\n    IERC721(details.tokenERC721).safeTransferFrom(address(this), msg.sender,  details.tokenId);\n    //pendingReturns[msg.sender][_auctionId] = 0; //commenting so as to allow earlier bids to be withdrawn by winner\n    emit NftWithdrawn(details.tokenId, details.currentWinner);\n    /* below might not be needed if we never push current winner bid into the pendingReturns mapping */\n    //require(pendingReturns[msg.sender] != 0, \"no bids placed\");\n    //pendingReturns[msg.sender] = 0;\n    //safeTransferFrom(details.auctioneer, msg.sender, details.tokenId);\n  }\n\n  /**\n     * @dev Function to withdraw a bid once the auction is over\n     * @param _auctionId as parameter\n     */\n  function withdrawBid (uint256 _auctionId)\n  public\n  stopInEmergency\n  {\n    //to implement pull over push pattern\n    //AuctionDetails memory details = auctions[_auctionId];\n    AuctionDetails storage details = auctions[_auctionId];\n    require(details.auctionComplete == true, \"Auction must be complete\");\n    //require(details.auctionStatus == AuctionStatus.EndAuction, \"Auction not ended yet\"); //this is what we can take out to allow early bid withdrawal\n    require(pendingReturns[msg.sender][_auctionId] != 0, \"no bid to withdraw\");\n    uint amount = pendingReturns[msg.sender][_auctionId];\n    //bids[msg.sender] = 0;\n    //what happens to the current winner variable if highest bidder withdraw his/her bid??\n    if (amount > 0)\n    {\n      pendingReturns[msg.sender][_auctionId] = 0; //to avoid reentrancy attacks\n      msg.sender.transfer(amount);\n    }\n    emit BidWithdrawn(msg.sender);\n  }\n\n  /**\n     * @dev Function for the auctioneer to withdraw the highest bid once the auction is over\n     * @param _auctionId as parameter\n     */\n  function withdrawHighestBid (uint256 _auctionId)\n  public\n  stopInEmergency\n  {\n    AuctionDetails storage details = auctions[_auctionId];\n    require(details.auctionComplete == true, \"Auction must be active\");\n    require(msg.sender == details.auctioneer, \"you are not the auctioneer, nice try :)\");\n    uint amount = details.highestBid;\n    if ( amount > 0)\n    {\n      details.highestBid = 0; // avoid reentrancy\n      msg.sender.transfer(amount);\n    }\n    emit BidClaimed(msg.sender);\n  }\n  /**\n     * @dev Function called upon deployment of this contract and used to set a state variable to the deployed address of the ERC721 contract deployed in the deployment script\n     * @dev can only be called by original deployer\n     * @param _auctionERC721 address of ERC721 contract deployed as parameter\n     */\n  function setContractERC721(address _auctionERC721)\n  public\n  onlyOwner\n  {\n    auctionERC721 = IAuctionERC721(_auctionERC721);\n    emit NewAuctionERC721(_auctionERC721, now);\n  }\n\n  /**\n     * @dev External function to retrieve the current number of auctions already created\n     * @return _nbOfAuctions a number of auctions from the array\n     */\n  function getNumberOfAuctions()\n  external\n  view\n  returns(uint256 _nbOfAuctions)\n  {\n    return nftAuctions.length;\n  }\n\n  /**\n     * @dev External function to retrieve all the info of a specific auction\n     * @param _auctionId as parameter\n     * @return _tokenERC721\n     */\n  function getAuctionInfo(uint256 _auctionId)\n  external\n  view\n  returns (address _tokenERC721, address _auctioneer, address _currentWinner, uint auctionId, AuctionStatus _auctionStatus, uint _highestBid, uint _startPrice, uint _tokenId, bool _auctionComplete)\n  {\n    AuctionDetails memory auction = auctions[_auctionId];\n    return (auction.tokenERC721, auction.auctioneer, auction.currentWinner, auction.auctionId, auction.auctionStatus, auction.highestBid, auction.startPrice, auction.tokenId, auction.auctionComplete);\n  }\n\n}\n",
  "sourcePath": "/home/thibault/Documents/Ethereum/ConsensysBootcamp/FinalProjectThibault/contracts/AuctionNft.sol",
  "compiler": {
    "name": "solc",
    "version": "0.6.12+commit.27d51765.Emscripten.clang"
  },
  "schemaVersion": "3.3.1",
  "updatedAt": "2020-11-29T07:24:57.523Z",
  "networkType": "ethereum",
  "devdoc": {
    "details": "Our contract needs to support safeTransfers",
    "kind": "dev",
    "methods": {
      "bidAuction(uint256)": {
        "details": "External function to bid on a created auctionPayable as it receives ether",
        "params": {
          "_auctionId": "as parameter"
        }
      },
      "createAuction(address,uint256,uint256)": {
        "details": "Function to create an auction",
        "params": {
          "_startPrice": "start price of the auction",
          "_tokenERC721": "which is the address of the deployed contract used to create our NFT",
          "_tokenId": "tokenid of the NFT to auction"
        },
        "returns": {
          "_accountId": "updated"
        }
      },
      "endAuction(uint256)": {
        "details": "Function for an auctioneer to end an auction",
        "params": {
          "_auctionId": "as parameter"
        }
      },
      "getAuctionInfo(uint256)": {
        "details": "External function to retrieve all the info of a specific auction",
        "params": {
          "_auctionId": "as parameter"
        },
        "returns": {
          "_tokenERC721": "_tokenERC721"
        }
      },
      "getNumberOfAuctions()": {
        "details": "External function to retrieve the current number of auctions already created",
        "returns": {
          "_nbOfAuctions": "a number of auctions from the array"
        }
      },
      "onERC721Received(address,address,uint256,bytes)": {
        "details": "See {IERC721Receiver-onERC721Received}. Always returns `IERC721Receiver.onERC721Received.selector`."
      },
      "setContractERC721(address)": {
        "details": "Function called upon deployment of this contract and used to set a state variable to the deployed address of the ERC721 contract deployed in the deployment scriptcan only be called by original deployer",
        "params": {
          "_auctionERC721": "address of ERC721 contract deployed as parameter"
        }
      },
      "withdrawBid(uint256)": {
        "details": "Function to withdraw a bid once the auction is over",
        "params": {
          "_auctionId": "as parameter"
        }
      },
      "withdrawHighestBid(uint256)": {
        "details": "Function for the auctioneer to withdraw the highest bid once the auction is over",
        "params": {
          "_auctionId": "as parameter"
        }
      },
      "withdrawNft(uint256)": {
        "details": "Function to claim an NFT for a winner to be called once the auction is over",
        "params": {
          "_auctionId": "as parameter"
        }
      }
    },
    "title": "Inheritance",
    "version": 1
  },
  "userdoc": {
    "kind": "user",
    "methods": {},
    "version": 1
  }
}