{
  "contractName": "AuctionNft",
  "abi": [
    {
      "inputs": [
        {
          "internalType": "address",
          "name": "_auctionERC721",
          "type": "address"
        }
      ],
      "stateMutability": "nonpayable",
      "type": "constructor"
    },
    {
      "anonymous": false,
      "inputs": [
        {
          "indexed": true,
          "internalType": "address",
          "name": "_auctionERC721",
          "type": "address"
        },
        {
          "indexed": false,
          "internalType": "uint256",
          "name": "_timestamp",
          "type": "uint256"
        }
      ],
      "name": "NewAuctionERC721",
      "type": "event"
    },
    {
      "inputs": [],
      "name": "auctionERC721",
      "outputs": [
        {
          "internalType": "contract IAuctionERC721",
          "name": "",
          "type": "address"
        }
      ],
      "stateMutability": "view",
      "type": "function"
    },
    {
      "inputs": [
        {
          "internalType": "uint256",
          "name": "",
          "type": "uint256"
        }
      ],
      "name": "auctions",
      "outputs": [
        {
          "internalType": "address",
          "name": "tokenERC721",
          "type": "address"
        },
        {
          "internalType": "address payable",
          "name": "auctioneer",
          "type": "address"
        },
        {
          "internalType": "address payable",
          "name": "currentWinner",
          "type": "address"
        },
        {
          "internalType": "uint256",
          "name": "auctionId",
          "type": "uint256"
        },
        {
          "internalType": "enum AuctionNft.AuctionStatus",
          "name": "auctionStatus",
          "type": "uint8"
        },
        {
          "internalType": "uint256",
          "name": "startPrice",
          "type": "uint256"
        },
        {
          "internalType": "uint256",
          "name": "tokenId",
          "type": "uint256"
        },
        {
          "internalType": "bool",
          "name": "auctionComplete",
          "type": "bool"
        }
      ],
      "stateMutability": "view",
      "type": "function"
    },
    {
      "inputs": [
        {
          "internalType": "address",
          "name": "",
          "type": "address"
        },
        {
          "internalType": "address",
          "name": "",
          "type": "address"
        },
        {
          "internalType": "uint256",
          "name": "",
          "type": "uint256"
        },
        {
          "internalType": "bytes",
          "name": "",
          "type": "bytes"
        }
      ],
      "name": "onERC721Received",
      "outputs": [
        {
          "internalType": "bytes4",
          "name": "",
          "type": "bytes4"
        }
      ],
      "stateMutability": "nonpayable",
      "type": "function"
    },
    {
      "inputs": [],
      "name": "createAuction",
      "outputs": [],
      "stateMutability": "nonpayable",
      "type": "function"
    },
    {
      "inputs": [
        {
          "internalType": "uint256",
          "name": "_auctionId",
          "type": "uint256"
        }
      ],
      "name": "startAuction",
      "outputs": [],
      "stateMutability": "nonpayable",
      "type": "function"
    },
    {
      "inputs": [],
      "name": "bidAuction",
      "outputs": [],
      "stateMutability": "nonpayable",
      "type": "function"
    },
    {
      "inputs": [
        {
          "internalType": "uint256",
          "name": "_auctionId",
          "type": "uint256"
        }
      ],
      "name": "withdrawNft",
      "outputs": [],
      "stateMutability": "nonpayable",
      "type": "function"
    },
    {
      "inputs": [],
      "name": "withdrawBid",
      "outputs": [],
      "stateMutability": "nonpayable",
      "type": "function"
    },
    {
      "inputs": [
        {
          "internalType": "address",
          "name": "_auctionERC721",
          "type": "address"
        }
      ],
      "name": "setContractERC721",
      "outputs": [],
      "stateMutability": "nonpayable",
      "type": "function"
    }
  ],
  "bytecode": "0x608060405234801561001057600080fd5b50604051610d91380380610d918339818101604052602081101561003357600080fd5b81019080805190602001909291905050506100538161009a60201b60201c565b33600360006101000a81548173ffffffffffffffffffffffffffffffffffffffff021916908373ffffffffffffffffffffffffffffffffffffffff160217905550506101ee565b3373ffffffffffffffffffffffffffffffffffffffff16600360009054906101000a900473ffffffffffffffffffffffffffffffffffffffff1673ffffffffffffffffffffffffffffffffffffffff161461015d576040517f08c379a000000000000000000000000000000000000000000000000000000000815260040180806020018281038252601f8152602001807f796f7520617265206e6f7420617574686f72697a656420666f7220746869730081525060200191505060405180910390fd5b806000806101000a81548173ffffffffffffffffffffffffffffffffffffffff021916908373ffffffffffffffffffffffffffffffffffffffff1602179055508073ffffffffffffffffffffffffffffffffffffffff167fc3ed467480c03780e2ec27d1db0b8101f06a31fc4b8dca9290c5511ec3b6df6b426040518082815260200191505060405180910390a250565b610b94806101fd6000396000f3fe608060405234801561001057600080fd5b50600436106100935760003560e01c8063571a26a011610066578063571a26a01461024c5780638b3e491d1461030e578063910efae814610342578063b2031bee14610370578063f58114471461037a57610093565b8063065de74c146100985780631000f298146100c6578063150b7a021461010a57806337271cc714610242575b600080fd5b6100c4600480360360208110156100ae57600080fd5b8101908080359060200190929190505050610384565b005b610108600480360360208110156100dc57600080fd5b81019080803573ffffffffffffffffffffffffffffffffffffffff169060200190929190505050610514565b005b61020d6004803603608081101561012057600080fd5b81019080803573ffffffffffffffffffffffffffffffffffffffff169060200190929190803573ffffffffffffffffffffffffffffffffffffffff169060200190929190803590602001909291908035906020019064010000000081111561018757600080fd5b82018360208201111561019957600080fd5b803590602001918460018302840111640100000000831117156101bb57600080fd5b91908080601f016020809104026020016040519081016040528093929190818152602001838380828437600081840152601f19601f820116905080830192505050505050509192919290505050610668565b60405180827bffffffffffffffffffffffffffffffffffffffffffffffffffffffff1916815260200191505060405180910390f35b61024a61067c565b005b6102786004803603602081101561026257600080fd5b81019080803590602001909291905050506107ba565b604051808973ffffffffffffffffffffffffffffffffffffffff1681526020018873ffffffffffffffffffffffffffffffffffffffff1681526020018773ffffffffffffffffffffffffffffffffffffffff1681526020018681526020018560038111156102e257fe5b815260200184815260200183815260200182151581526020019850505050505050505060405180910390f35b61031661087c565b604051808273ffffffffffffffffffffffffffffffffffffffff16815260200191505060405180910390f35b61036e6004803603602081101561035857600080fd5b81019080803590602001909291905050506108a0565b005b610378610b14565b005b610382610b16565b005b6000600160008381526020019081526020016000209050600060038111156103a857fe5b8160040160009054906101000a900460ff1660038111156103c557fe5b1461041b576040517f08c379a0000000000000000000000000000000000000000000000000000000008152600401808060200182810382526023815260200180610b196023913960400191505060405180910390fd5b8060000160009054906101000a900473ffffffffffffffffffffffffffffffffffffffff1673ffffffffffffffffffffffffffffffffffffffff166342842e0e333084600601546040518463ffffffff1660e01b8152600401808473ffffffffffffffffffffffffffffffffffffffff1681526020018373ffffffffffffffffffffffffffffffffffffffff1681526020018281526020019350505050600060405180830381600087803b1580156104d257600080fd5b505af11580156104e6573d6000803e3d6000fd5b5050505060018160040160006101000a81548160ff0219169083600381111561050b57fe5b02179055505050565b3373ffffffffffffffffffffffffffffffffffffffff16600360009054906101000a900473ffffffffffffffffffffffffffffffffffffffff1673ffffffffffffffffffffffffffffffffffffffff16146105d7576040517f08c379a000000000000000000000000000000000000000000000000000000000815260040180806020018281038252601f8152602001807f796f7520617265206e6f7420617574686f72697a656420666f7220746869730081525060200191505060405180910390fd5b806000806101000a81548173ffffffffffffffffffffffffffffffffffffffff021916908373ffffffffffffffffffffffffffffffffffffffff1602179055508073ffffffffffffffffffffffffffffffffffffffff167fc3ed467480c03780e2ec27d1db0b8101f06a31fc4b8dca9290c5511ec3b6df6b426040518082815260200191505060405180910390a250565b600063150b7a0260e01b9050949350505050565b6000600260003373ffffffffffffffffffffffffffffffffffffffff1673ffffffffffffffffffffffffffffffffffffffff168152602001908152602001600020541415610732576040517f08c379a00000000000000000000000000000000000000000000000000000000081526004018080602001828103825260128152602001807f6e6f2062696420746f207769746864726177000000000000000000000000000081525060200191505060405180910390fd5b3373ffffffffffffffffffffffffffffffffffffffff166108fc600260003373ffffffffffffffffffffffffffffffffffffffff1673ffffffffffffffffffffffffffffffffffffffff168152602001908152602001600020549081150290604051600060405180830381858888f193505050501580156107b7573d6000803e3d6000fd5b50565b60016020528060005260406000206000915090508060000160009054906101000a900473ffffffffffffffffffffffffffffffffffffffff16908060010160009054906101000a900473ffffffffffffffffffffffffffffffffffffffff16908060020160009054906101000a900473ffffffffffffffffffffffffffffffffffffffff16908060030154908060040160009054906101000a900460ff16908060050154908060060154908060070160009054906101000a900460ff16905088565b60008054906101000a900473ffffffffffffffffffffffffffffffffffffffff1681565b6000600160008381526020019081526020016000209050600115158160070160009054906101000a900460ff16151514610942576040517f08c379a00000000000000000000000000000000000000000000000000000000081526004018080602001828103825260168152602001807f41756374696f6e206d757374206265206163746976650000000000000000000081525060200191505060405180910390fd5b8060020160009054906101000a900473ffffffffffffffffffffffffffffffffffffffff1673ffffffffffffffffffffffffffffffffffffffff163373ffffffffffffffffffffffffffffffffffffffff16146109ea576040517f08c379a0000000000000000000000000000000000000000000000000000000008152600401808060200182810382526023815260200180610b3c6023913960400191505060405180910390fd5b6003808111156109f657fe5b8160040160009054906101000a900460ff166003811115610a1357fe5b50506000600260003373ffffffffffffffffffffffffffffffffffffffff1673ffffffffffffffffffffffffffffffffffffffff168152602001908152602001600020541415610acb576040517f08c379a000000000000000000000000000000000000000000000000000000000815260040180806020018281038252600e8152602001807f6e6f206269647320706c6163656400000000000000000000000000000000000081525060200191505060405180910390fd5b6000600260003373ffffffffffffffffffffffffffffffffffffffff1673ffffffffffffffffffffffffffffffffffffffff168152602001908152602001600020819055505050565b565b56fe41756374696f6e20697320616c7265616479206c697665206f722066696e6973686564796f7520617265206e6f74207468652077696e6e65722c206e69636520747279203a29a264697066735822122046767f102d8016be56ccfbcd81187f8c54cee3a2b0d7b67ca5d77f547aa2975664736f6c634300060c0033",
  "immutableReferences": {},
  "source": "pragma solidity ^0.6.0;\n\nimport \"node_modules/@openzeppelin/contracts/token/ERC721/IERC721.sol\";\nimport \"node_modules/@openzeppelin/contracts/access/Ownable.sol\";\nimport \"@openzeppelin/contracts/math/SafeMath.sol\";\n\n//below interface used for the AuctionNft contract to be able to receive AuctionNft\nimport \"@openzeppelin/contracts/token/ERC721/IERC721Receiver.sol\";\nimport \"@openzeppelin/contracts/token/ERC721/ERC721Holder.sol\";\nimport \"contracts/interfaces/IAuctionERC721.sol\";\n\ncontract AuctionNft is ERC721Holder{\n\n  //we get the address so that we can call the functions directly\n  IAuctionERC721 public auctionERC721;\n\n  //mapping of auctionId to AuctionDetails\n  mapping (uint256 => AuctionDetails) public auctions;\n\n  //pull over push design choice\n  mapping(address => uint256) bids;\n\n  //enum to check auction status\n  enum AuctionStatus { NotStarted, Bidding, EndAuction , AuctionClaimed}\n\n  struct AuctionDetails {\n    address tokenERC721;\n    address payable auctioneer;\n    address payable currentWinner;\n    //ERC721 nftContract; //will initially be the address provided by msg.sender when filling a box maybe so that nftContract: ERC721(address);\n    uint auctionId;\n    AuctionStatus auctionStatus;\n    uint startPrice;\n    uint256 tokenId;\n    bool auctionComplete;\n    //address[] bidders;\n    //uint minimumIncrement;\n    //variable for auction duration as well\n  }\n\n  address private owner;\n  event NewAuctionERC721(address indexed _auctionERC721, uint _timestamp);\n\n  modifier onlyOwner() {\n    require(owner == msg.sender, \"you are not authorized for this\");\n    _;\n  }\n\n  constructor(address _auctionERC721)\n  public\n  {\n    setContractERC721(_auctionERC721);\n    owner = msg.sender;\n  }\n\n  //either we are going to use the below or the transfer function\n\n  //present in ERC721Holder but will it work??\n  /*\n  function onERC721Received(address _operator, address _from, uint256 _tokenId, bytes _data)\n  external\n  returns(bytes4) {\n    return 0x150b7a02;\n  }\n  */\n\n  //in the createauction function, we will send ownership of the tokenId to the contract itself\n  function createAuction() public {\n\n  }\n\n  function startAuction (uint _auctionId)\n  external\n  {\n    AuctionDetails storage details = auctions[_auctionId];\n    require(details.auctionStatus == AuctionStatus.NotStarted, \"Auction is already live or finished\");\n    IERC721(details.tokenERC721).safeTransferFrom(msg.sender, address(this), details.tokenId); //not possible to use require here as safeTransferFrom doesn't return anything\n    details.auctionStatus = AuctionStatus.Bidding;\n  }\n\n  function bidAuction () external {\n\n  }\n\n  function withdrawNft (uint256 _auctionId) public  {\n    AuctionDetails storage details = auctions[_auctionId];\n    require(details.auctionComplete == true, \"Auction must be active\");\n    require(msg.sender == details.currentWinner, \"you are not the winner, nice try :)\");\n    details.auctionStatus == AuctionStatus.AuctionClaimed;\n    require(bids[msg.sender] != 0, \"no bids placed\");\n    bids[msg.sender] = 0;\n    //safeTransferFrom(details.auctioneer, msg.sender, details.tokenId);\n  }\n\n  function withdrawBid () public {\n    //to implement pull over push pattern\n    require(bids[msg.sender] != 0, \"no bid to withdraw\");\n    //bids[msg.sender] = 0;\n    //what happens to the current winner variable if highest bidder withdraw his/her bid??\n    msg.sender.transfer(bids[msg.sender]);\n  }\n\n  function setContractERC721(address _auctionERC721)\n  public\n  onlyOwner\n  {\n    auctionERC721 = IAuctionERC721(_auctionERC721);\n    emit NewAuctionERC721(_auctionERC721, now);\n  }\n\n}\n",
  "sourcePath": "/home/thibault/Documents/Ethereum/ConsensysBootcamp/FinalProjectThibault/contracts/AuctionNft.sol",
  "compiler": {
    "name": "solc",
    "version": "0.6.12+commit.27d51765.Emscripten.clang"
  },
  "schemaVersion": "3.3.1",
  "updatedAt": "2020-11-04T15:57:47.113Z",
  "devdoc": {
    "kind": "dev",
    "methods": {
      "onERC721Received(address,address,uint256,bytes)": {
        "details": "See {IERC721Receiver-onERC721Received}. Always returns `IERC721Receiver.onERC721Received.selector`."
      }
    },
    "version": 1
  },
  "userdoc": {
    "kind": "user",
    "methods": {},
    "version": 1
  }
}