{
  "contractName": "AuctionNft",
  "abi": [
    {
      "inputs": [
        {
          "internalType": "address",
          "name": "_auctionERC721",
          "type": "address"
        }
      ],
      "stateMutability": "nonpayable",
      "type": "constructor"
    },
    {
      "anonymous": false,
      "inputs": [
        {
          "indexed": true,
          "internalType": "address",
          "name": "_auctionERC721",
          "type": "address"
        },
        {
          "indexed": false,
          "internalType": "uint256",
          "name": "_timestamp",
          "type": "uint256"
        }
      ],
      "name": "NewAuctionERC721",
      "type": "event"
    },
    {
      "inputs": [],
      "name": "auctionERC721",
      "outputs": [
        {
          "internalType": "contract IAuctionERC721",
          "name": "",
          "type": "address"
        }
      ],
      "stateMutability": "view",
      "type": "function"
    },
    {
      "inputs": [
        {
          "internalType": "uint256",
          "name": "",
          "type": "uint256"
        }
      ],
      "name": "auctions",
      "outputs": [
        {
          "internalType": "address payable",
          "name": "auctioneer",
          "type": "address"
        },
        {
          "internalType": "address payable",
          "name": "currentWinner",
          "type": "address"
        },
        {
          "internalType": "uint256",
          "name": "auctionId",
          "type": "uint256"
        },
        {
          "internalType": "enum AuctionNft.AuctionStatus",
          "name": "auctionStatus",
          "type": "uint8"
        },
        {
          "internalType": "uint256",
          "name": "startPrice",
          "type": "uint256"
        },
        {
          "internalType": "uint256",
          "name": "tokenId",
          "type": "uint256"
        },
        {
          "internalType": "bool",
          "name": "auctionComplete",
          "type": "bool"
        }
      ],
      "stateMutability": "view",
      "type": "function"
    },
    {
      "inputs": [],
      "name": "createAuction",
      "outputs": [],
      "stateMutability": "nonpayable",
      "type": "function"
    },
    {
      "inputs": [
        {
          "internalType": "uint256",
          "name": "_auctionId",
          "type": "uint256"
        }
      ],
      "name": "startAuction",
      "outputs": [],
      "stateMutability": "nonpayable",
      "type": "function"
    },
    {
      "inputs": [],
      "name": "bidAuction",
      "outputs": [],
      "stateMutability": "nonpayable",
      "type": "function"
    },
    {
      "inputs": [
        {
          "internalType": "uint256",
          "name": "_auctionId",
          "type": "uint256"
        }
      ],
      "name": "withdrawNft",
      "outputs": [],
      "stateMutability": "nonpayable",
      "type": "function"
    },
    {
      "inputs": [],
      "name": "withdrawBid",
      "outputs": [],
      "stateMutability": "nonpayable",
      "type": "function"
    },
    {
      "inputs": [
        {
          "internalType": "address",
          "name": "_auctionERC721",
          "type": "address"
        }
      ],
      "name": "setContractERC721",
      "outputs": [],
      "stateMutability": "nonpayable",
      "type": "function"
    }
  ],
  "bytecode": "0x608060405234801561001057600080fd5b50604051610b33380380610b338339818101604052602081101561003357600080fd5b81019080805190602001909291905050506100538161009a60201b60201c565b33600360006101000a81548173ffffffffffffffffffffffffffffffffffffffff021916908373ffffffffffffffffffffffffffffffffffffffff160217905550506101ee565b3373ffffffffffffffffffffffffffffffffffffffff16600360009054906101000a900473ffffffffffffffffffffffffffffffffffffffff1673ffffffffffffffffffffffffffffffffffffffff161461015d576040517f08c379a000000000000000000000000000000000000000000000000000000000815260040180806020018281038252601f8152602001807f796f7520617265206e6f7420617574686f72697a656420666f7220746869730081525060200191505060405180910390fd5b806000806101000a81548173ffffffffffffffffffffffffffffffffffffffff021916908373ffffffffffffffffffffffffffffffffffffffff1602179055508073ffffffffffffffffffffffffffffffffffffffff167fc3ed467480c03780e2ec27d1db0b8101f06a31fc4b8dca9290c5511ec3b6df6b426040518082815260200191505060405180910390a250565b610936806101fd6000396000f3fe608060405234801561001057600080fd5b50600436106100885760003560e01c80638b3e491d1161005b5780638b3e491d146101ae578063910efae8146101e2578063b2031bee14610210578063f58114471461021a57610088565b8063065de74c1461008d5780631000f298146100bb57806337271cc7146100ff578063571a26a014610109575b600080fd5b6100b9600480360360208110156100a357600080fd5b8101908080359060200190929190505050610224565b005b6100fd600480360360208110156100d157600080fd5b81019080803573ffffffffffffffffffffffffffffffffffffffff1690602001909291905050506102f0565b005b610107610444565b005b6101356004803603602081101561011f57600080fd5b8101908080359060200190929190505050610582565b604051808873ffffffffffffffffffffffffffffffffffffffff1681526020018773ffffffffffffffffffffffffffffffffffffffff16815260200186815260200185600381111561018357fe5b8152602001848152602001838152602001821515815260200197505050505050505060405180910390f35b6101b661061e565b604051808273ffffffffffffffffffffffffffffffffffffffff16815260200191505060405180910390f35b61020e600480360360208110156101f857600080fd5b8101908080359060200190929190505050610642565b005b6102186108b6565b005b6102226108b8565b005b6000600381111561023157fe5b6001600083815260200190815260200160002060030160009054906101000a900460ff16600381111561026057fe5b146102b6576040517f08c379a00000000000000000000000000000000000000000000000000000000081526004018080602001828103825260238152602001806108bb6023913960400191505060405180910390fd5b600180600083815260200190815260200160002060030160006101000a81548160ff021916908360038111156102e857fe5b021790555050565b3373ffffffffffffffffffffffffffffffffffffffff16600360009054906101000a900473ffffffffffffffffffffffffffffffffffffffff1673ffffffffffffffffffffffffffffffffffffffff16146103b3576040517f08c379a000000000000000000000000000000000000000000000000000000000815260040180806020018281038252601f8152602001807f796f7520617265206e6f7420617574686f72697a656420666f7220746869730081525060200191505060405180910390fd5b806000806101000a81548173ffffffffffffffffffffffffffffffffffffffff021916908373ffffffffffffffffffffffffffffffffffffffff1602179055508073ffffffffffffffffffffffffffffffffffffffff167fc3ed467480c03780e2ec27d1db0b8101f06a31fc4b8dca9290c5511ec3b6df6b426040518082815260200191505060405180910390a250565b6000600260003373ffffffffffffffffffffffffffffffffffffffff1673ffffffffffffffffffffffffffffffffffffffff1681526020019081526020016000205414156104fa576040517f08c379a00000000000000000000000000000000000000000000000000000000081526004018080602001828103825260128152602001807f6e6f2062696420746f207769746864726177000000000000000000000000000081525060200191505060405180910390fd5b3373ffffffffffffffffffffffffffffffffffffffff166108fc600260003373ffffffffffffffffffffffffffffffffffffffff1673ffffffffffffffffffffffffffffffffffffffff168152602001908152602001600020549081150290604051600060405180830381858888f1935050505015801561057f573d6000803e3d6000fd5b50565b60016020528060005260406000206000915090508060000160009054906101000a900473ffffffffffffffffffffffffffffffffffffffff16908060010160009054906101000a900473ffffffffffffffffffffffffffffffffffffffff16908060020154908060030160009054906101000a900460ff16908060040154908060050154908060060160009054906101000a900460ff16905087565b60008054906101000a900473ffffffffffffffffffffffffffffffffffffffff1681565b6000600160008381526020019081526020016000209050600115158160060160009054906101000a900460ff161515146106e4576040517f08c379a00000000000000000000000000000000000000000000000000000000081526004018080602001828103825260168152602001807f41756374696f6e206d757374206265206163746976650000000000000000000081525060200191505060405180910390fd5b8060010160009054906101000a900473ffffffffffffffffffffffffffffffffffffffff1673ffffffffffffffffffffffffffffffffffffffff163373ffffffffffffffffffffffffffffffffffffffff161461078c576040517f08c379a00000000000000000000000000000000000000000000000000000000081526004018080602001828103825260238152602001806108de6023913960400191505060405180910390fd5b60038081111561079857fe5b8160030160009054906101000a900460ff1660038111156107b557fe5b50506000600260003373ffffffffffffffffffffffffffffffffffffffff1673ffffffffffffffffffffffffffffffffffffffff16815260200190815260200160002054141561086d576040517f08c379a000000000000000000000000000000000000000000000000000000000815260040180806020018281038252600e8152602001807f6e6f206269647320706c6163656400000000000000000000000000000000000081525060200191505060405180910390fd5b6000600260003373ffffffffffffffffffffffffffffffffffffffff1673ffffffffffffffffffffffffffffffffffffffff168152602001908152602001600020819055505050565b565b56fe41756374696f6e20697320616c7265616479206c697665206f722066696e6973686564796f7520617265206e6f74207468652077696e6e65722c206e69636520747279203a29a26469706673582212209c3a102548adc880d6ea1462749ff4ac071c7ff9be8f11489934d80733cf7d8064736f6c634300060c0033",
  "immutableReferences": {},
  "source": "pragma solidity ^0.6.0;\n\nimport \"node_modules/@openzeppelin/contracts/token/ERC721/ERC721.sol\";\nimport \"node_modules/@openzeppelin/contracts/access/Ownable.sol\";\nimport \"@openzeppelin/contracts/math/SafeMath.sol\";\n\n\nimport \"contracts/interfaces/IAuctionERC721.sol\";\n\ncontract AuctionNft {\n\n  //we get the address so that we can call the functions directly\n  IAuctionERC721 public auctionERC721;\n\n  //mapping of auctionId to AuctionDetails\n  mapping (uint256 => AuctionDetails) public auctions;\n\n  //pull over push design choice\n  mapping(address => uint256) bids;\n\n  //enum to check auction status\n  enum AuctionStatus { NotStarted, Bidding, EndAuction , AuctionClaimed}\n\n  struct AuctionDetails {\n    address payable auctioneer;\n    address payable currentWinner;\n    //ERC721 nftContract; //will initially be the address provided by msg.sender when filling a box maybe so that nftContract: ERC721(address);\n    uint auctionId;\n    AuctionStatus auctionStatus;\n    uint startPrice;\n    uint tokenId;\n    bool auctionComplete;\n    //address[] bidders;\n    //uint minimumIncrement;\n    //variable for auction duration as well\n  }\n\n  address private owner;\n  event NewAuctionERC721(address indexed _auctionERC721, uint _timestamp);\n\n  modifier onlyOwner() {\n    require(owner == msg.sender, \"you are not authorized for this\");\n    _;\n  }\n\n  constructor(address _auctionERC721)\n  public\n  {\n    setContractERC721(_auctionERC721);\n    owner = msg.sender;\n  }\n\n  //in the createauction function, we will send ownership of the tokenId to the contract itself\n  function createAuction() public {\n\n  }\n\n  function startAuction (uint _auctionId)\n  external\n  {\n    require(auctions[_auctionId].auctionStatus == AuctionStatus.NotStarted, \"Auction is already live or finished\");\n    auctions[_auctionId].auctionStatus = AuctionStatus.Bidding;\n  }\n\n  function bidAuction () external {\n\n  }\n\n  function withdrawNft (uint256 _auctionId) public  {\n    AuctionDetails storage details = auctions[_auctionId];\n    require(details.auctionComplete == true, \"Auction must be active\");\n    require(msg.sender == details.currentWinner, \"you are not the winner, nice try :)\");\n    details.auctionStatus == AuctionStatus.AuctionClaimed;\n    require(bids[msg.sender] != 0, \"no bids placed\");\n    bids[msg.sender] = 0;\n    //safeTransferFrom(details.auctioneer, msg.sender, details.tokenId);\n  }\n\n  function withdrawBid () public {\n    //to implement pull over push pattern\n    require(bids[msg.sender] != 0, \"no bid to withdraw\");\n    //bids[msg.sender] = 0;\n    //what happens to the current winner variable if highest bidder withdraw his/her bid??\n    msg.sender.transfer(bids[msg.sender]);\n  }\n\n  function setContractERC721(address _auctionERC721)\n  public\n  onlyOwner\n  {\n    auctionERC721 = IAuctionERC721(_auctionERC721);\n    emit NewAuctionERC721(_auctionERC721, now);\n  }\n\n}\n",
  "sourcePath": "/home/thibault/Documents/Ethereum/ConsensysBootcamp/FinalProjectThibault/contracts/AuctionNft.sol",
  "compiler": {
    "name": "solc",
    "version": "0.6.12+commit.27d51765.Emscripten.clang"
  },
  "schemaVersion": "3.3.1",
  "updatedAt": "2020-11-04T14:19:32.535Z",
  "devdoc": {
    "kind": "dev",
    "methods": {},
    "version": 1
  },
  "userdoc": {
    "kind": "user",
    "methods": {},
    "version": 1
  }
}