{
  "contractName": "AuctionERC721",
  "abi": [
    {
      "inputs": [
        {
          "internalType": "string",
          "name": "_name",
          "type": "string"
        },
        {
          "internalType": "string",
          "name": "_symbol",
          "type": "string"
        }
      ],
      "stateMutability": "nonpayable",
      "type": "constructor"
    },
    {
      "anonymous": false,
      "inputs": [
        {
          "indexed": true,
          "internalType": "address",
          "name": "owner",
          "type": "address"
        },
        {
          "indexed": true,
          "internalType": "address",
          "name": "approved",
          "type": "address"
        },
        {
          "indexed": true,
          "internalType": "uint256",
          "name": "tokenId",
          "type": "uint256"
        }
      ],
      "name": "Approval",
      "type": "event"
    },
    {
      "anonymous": false,
      "inputs": [
        {
          "indexed": true,
          "internalType": "address",
          "name": "owner",
          "type": "address"
        },
        {
          "indexed": true,
          "internalType": "address",
          "name": "operator",
          "type": "address"
        },
        {
          "indexed": false,
          "internalType": "bool",
          "name": "approved",
          "type": "bool"
        }
      ],
      "name": "ApprovalForAll",
      "type": "event"
    },
    {
      "anonymous": false,
      "inputs": [
        {
          "indexed": true,
          "internalType": "address",
          "name": "previousOwner",
          "type": "address"
        },
        {
          "indexed": true,
          "internalType": "address",
          "name": "newOwner",
          "type": "address"
        }
      ],
      "name": "OwnershipTransferred",
      "type": "event"
    },
    {
      "anonymous": false,
      "inputs": [
        {
          "indexed": true,
          "internalType": "address",
          "name": "from",
          "type": "address"
        },
        {
          "indexed": true,
          "internalType": "address",
          "name": "to",
          "type": "address"
        },
        {
          "indexed": true,
          "internalType": "uint256",
          "name": "tokenId",
          "type": "uint256"
        }
      ],
      "name": "Transfer",
      "type": "event"
    },
    {
      "inputs": [
        {
          "internalType": "address",
          "name": "to",
          "type": "address"
        },
        {
          "internalType": "uint256",
          "name": "tokenId",
          "type": "uint256"
        }
      ],
      "name": "approve",
      "outputs": [],
      "stateMutability": "nonpayable",
      "type": "function"
    },
    {
      "inputs": [
        {
          "internalType": "address",
          "name": "owner",
          "type": "address"
        }
      ],
      "name": "balanceOf",
      "outputs": [
        {
          "internalType": "uint256",
          "name": "",
          "type": "uint256"
        }
      ],
      "stateMutability": "view",
      "type": "function",
      "constant": true
    },
    {
      "inputs": [],
      "name": "baseURI",
      "outputs": [
        {
          "internalType": "string",
          "name": "",
          "type": "string"
        }
      ],
      "stateMutability": "view",
      "type": "function",
      "constant": true
    },
    {
      "inputs": [
        {
          "internalType": "uint256",
          "name": "tokenId",
          "type": "uint256"
        }
      ],
      "name": "getApproved",
      "outputs": [
        {
          "internalType": "address",
          "name": "",
          "type": "address"
        }
      ],
      "stateMutability": "view",
      "type": "function",
      "constant": true
    },
    {
      "inputs": [
        {
          "internalType": "address",
          "name": "owner",
          "type": "address"
        },
        {
          "internalType": "address",
          "name": "operator",
          "type": "address"
        }
      ],
      "name": "isApprovedForAll",
      "outputs": [
        {
          "internalType": "bool",
          "name": "",
          "type": "bool"
        }
      ],
      "stateMutability": "view",
      "type": "function",
      "constant": true
    },
    {
      "inputs": [],
      "name": "name",
      "outputs": [
        {
          "internalType": "string",
          "name": "",
          "type": "string"
        }
      ],
      "stateMutability": "view",
      "type": "function",
      "constant": true
    },
    {
      "inputs": [],
      "name": "owner",
      "outputs": [
        {
          "internalType": "address",
          "name": "",
          "type": "address"
        }
      ],
      "stateMutability": "view",
      "type": "function",
      "constant": true
    },
    {
      "inputs": [
        {
          "internalType": "uint256",
          "name": "tokenId",
          "type": "uint256"
        }
      ],
      "name": "ownerOf",
      "outputs": [
        {
          "internalType": "address",
          "name": "",
          "type": "address"
        }
      ],
      "stateMutability": "view",
      "type": "function",
      "constant": true
    },
    {
      "inputs": [],
      "name": "renounceOwnership",
      "outputs": [],
      "stateMutability": "nonpayable",
      "type": "function"
    },
    {
      "inputs": [
        {
          "internalType": "address",
          "name": "from",
          "type": "address"
        },
        {
          "internalType": "address",
          "name": "to",
          "type": "address"
        },
        {
          "internalType": "uint256",
          "name": "tokenId",
          "type": "uint256"
        }
      ],
      "name": "safeTransferFrom",
      "outputs": [],
      "stateMutability": "nonpayable",
      "type": "function"
    },
    {
      "inputs": [
        {
          "internalType": "address",
          "name": "from",
          "type": "address"
        },
        {
          "internalType": "address",
          "name": "to",
          "type": "address"
        },
        {
          "internalType": "uint256",
          "name": "tokenId",
          "type": "uint256"
        },
        {
          "internalType": "bytes",
          "name": "_data",
          "type": "bytes"
        }
      ],
      "name": "safeTransferFrom",
      "outputs": [],
      "stateMutability": "nonpayable",
      "type": "function"
    },
    {
      "inputs": [
        {
          "internalType": "address",
          "name": "operator",
          "type": "address"
        },
        {
          "internalType": "bool",
          "name": "approved",
          "type": "bool"
        }
      ],
      "name": "setApprovalForAll",
      "outputs": [],
      "stateMutability": "nonpayable",
      "type": "function"
    },
    {
      "inputs": [
        {
          "internalType": "bytes4",
          "name": "interfaceId",
          "type": "bytes4"
        }
      ],
      "name": "supportsInterface",
      "outputs": [
        {
          "internalType": "bool",
          "name": "",
          "type": "bool"
        }
      ],
      "stateMutability": "view",
      "type": "function",
      "constant": true
    },
    {
      "inputs": [],
      "name": "symbol",
      "outputs": [
        {
          "internalType": "string",
          "name": "",
          "type": "string"
        }
      ],
      "stateMutability": "view",
      "type": "function",
      "constant": true
    },
    {
      "inputs": [
        {
          "internalType": "uint256",
          "name": "index",
          "type": "uint256"
        }
      ],
      "name": "tokenByIndex",
      "outputs": [
        {
          "internalType": "uint256",
          "name": "",
          "type": "uint256"
        }
      ],
      "stateMutability": "view",
      "type": "function",
      "constant": true
    },
    {
      "inputs": [
        {
          "internalType": "address",
          "name": "owner",
          "type": "address"
        },
        {
          "internalType": "uint256",
          "name": "index",
          "type": "uint256"
        }
      ],
      "name": "tokenOfOwnerByIndex",
      "outputs": [
        {
          "internalType": "uint256",
          "name": "",
          "type": "uint256"
        }
      ],
      "stateMutability": "view",
      "type": "function",
      "constant": true
    },
    {
      "inputs": [
        {
          "internalType": "uint256",
          "name": "tokenId",
          "type": "uint256"
        }
      ],
      "name": "tokenURI",
      "outputs": [
        {
          "internalType": "string",
          "name": "",
          "type": "string"
        }
      ],
      "stateMutability": "view",
      "type": "function",
      "constant": true
    },
    {
      "inputs": [],
      "name": "totalSupply",
      "outputs": [
        {
          "internalType": "uint256",
          "name": "",
          "type": "uint256"
        }
      ],
      "stateMutability": "view",
      "type": "function",
      "constant": true
    },
    {
      "inputs": [
        {
          "internalType": "address",
          "name": "from",
          "type": "address"
        },
        {
          "internalType": "address",
          "name": "to",
          "type": "address"
        },
        {
          "internalType": "uint256",
          "name": "tokenId",
          "type": "uint256"
        }
      ],
      "name": "transferFrom",
      "outputs": [],
      "stateMutability": "nonpayable",
      "type": "function"
    },
    {
      "inputs": [
        {
          "internalType": "address",
          "name": "newOwner",
          "type": "address"
        }
      ],
      "name": "transferOwnership",
      "outputs": [],
      "stateMutability": "nonpayable",
      "type": "function"
    },
    {
      "inputs": [],
      "name": "whitelisted",
      "outputs": [
        {
          "internalType": "address",
          "name": "",
          "type": "address"
        }
      ],
      "stateMutability": "view",
      "type": "function",
      "constant": true
    },
    {
      "inputs": [
        {
          "internalType": "uint256",
          "name": "_tokenId",
          "type": "uint256"
        }
      ],
      "name": "tokenCreator",
      "outputs": [
        {
          "internalType": "address",
          "name": "",
          "type": "address"
        }
      ],
      "stateMutability": "view",
      "type": "function",
      "constant": true
    },
    {
      "inputs": [
        {
          "internalType": "address",
          "name": "_receiver",
          "type": "address"
        },
        {
          "internalType": "string",
          "name": "_uri",
          "type": "string"
        }
      ],
      "name": "addNewToken",
      "outputs": [
        {
          "internalType": "uint256",
          "name": "_tokenId",
          "type": "uint256"
        }
      ],
      "stateMutability": "nonpayable",
      "type": "function"
    },
    {
      "inputs": [
        {
          "internalType": "uint256",
          "name": "_tokenId",
          "type": "uint256"
        }
      ],
      "name": "removeToken",
      "outputs": [],
      "stateMutability": "nonpayable",
      "type": "function"
    },
    {
      "inputs": [],
      "name": "getTokenCreators",
      "outputs": [
        {
          "internalType": "uint256[]",
          "name": "",
          "type": "uint256[]"
        }
      ],
      "stateMutability": "view",
      "type": "function",
      "constant": true
    }
  ],
  "bytecode": "0x60806040523480156200001157600080fd5b5060405162003ab538038062003ab5833981810160405260408110156200003757600080fd5b81019080805160405193929190846401000000008211156200005857600080fd5b838201915060208201858111156200006f57600080fd5b82518660018202830111640100000000821117156200008d57600080fd5b8083526020830192505050908051906020019080838360005b83811015620000c3578082015181840152602081019050620000a6565b50505050905090810190601f168015620000f15780820380516001836020036101000a031916815260200191505b50604052602001805160405193929190846401000000008211156200011557600080fd5b838201915060208201858111156200012c57600080fd5b82518660018202830111640100000000821117156200014a57600080fd5b8083526020830192505050908051906020019080838360005b838110156200018057808201518184015260208101905062000163565b50505050905090810190601f168015620001ae5780820380516001836020036101000a031916815260200191505b506040525050508181620001cf6301ffc9a760e01b6200030460201b60201c565b8160069080519060200190620001e792919062000415565b5080600790805190602001906200020092919062000415565b50620002196380ac58cd60e01b6200030460201b60201c565b62000231635b5e139f60e01b6200030460201b60201c565b6200024963780e9d6360e01b6200030460201b60201c565b505060006200025d6200040d60201b60201c565b905080600a60006101000a81548173ffffffffffffffffffffffffffffffffffffffff021916908373ffffffffffffffffffffffffffffffffffffffff1602179055508073ffffffffffffffffffffffffffffffffffffffff16600073ffffffffffffffffffffffffffffffffffffffff167f8be0079c531659141344cd1fd0a4f28419497f9722a3daafe3b4186f6b6457e060405160405180910390a3505050620004bb565b63ffffffff60e01b817bffffffffffffffffffffffffffffffffffffffffffffffffffffffff19161415620003a1576040517f08c379a000000000000000000000000000000000000000000000000000000000815260040180806020018281038252601c8152602001807f4552433136353a20696e76616c696420696e746572666163652069640000000081525060200191505060405180910390fd5b6001600080837bffffffffffffffffffffffffffffffffffffffffffffffffffffffff19167bffffffffffffffffffffffffffffffffffffffffffffffffffffffff1916815260200190815260200160002060006101000a81548160ff02191690831515021790555050565b600033905090565b828054600181600116156101000203166002900490600052602060002090601f016020900481019282601f106200045857805160ff191683800117855562000489565b8280016001018555821562000489579182015b82811115620004885782518255916020019190600101906200046b565b5b5090506200049891906200049c565b5090565b5b80821115620004b75760008160009055506001016200049d565b5090565b6135ea80620004cb6000396000f3fe608060405234801561001057600080fd5b50600436106101735760003560e01c806342842e0e116100de5780638da5cb5b11610097578063b88d4fde11610071578063b88d4fde146108ac578063c87b56dd146109b1578063e985e9c514610a58578063f2fde38b14610ad257610173565b80638da5cb5b146107a557806395d89b41146107d9578063a22cb4651461085c57610173565b806342842e0e146105b85780634f6ccce7146106265780636352211e146106685780636c0360eb146106c057806370a0823114610743578063715018a61461079b57610173565b806323b872dd1161013057806323b872dd146103815780632a9f2f14146103ef5780632f745c591461049c57806336c5d724146104fe5780633d9287fa1461052c57806340c1a0641461056057610173565b806301ffc9a71461017857806306fdde03146101db578063081812fc1461025e578063095ea7b3146102b657806318160ddd1461030457806322ec21ca14610322575b600080fd5b6101c36004803603602081101561018e57600080fd5b8101908080357bffffffffffffffffffffffffffffffffffffffffffffffffffffffff19169060200190929190505050610b16565b60405180821515815260200191505060405180910390f35b6101e3610b7d565b6040518080602001828103825283818151815260200191508051906020019080838360005b83811015610223578082015181840152602081019050610208565b50505050905090810190601f1680156102505780820380516001836020036101000a031916815260200191505b509250505060405180910390f35b61028a6004803603602081101561027457600080fd5b8101908080359060200190929190505050610c1f565b604051808273ffffffffffffffffffffffffffffffffffffffff16815260200191505060405180910390f35b610302600480360360408110156102cc57600080fd5b81019080803573ffffffffffffffffffffffffffffffffffffffff16906020019092919080359060200190929190505050610cba565b005b61030c610dfe565b6040518082815260200191505060405180910390f35b61032a610e0f565b6040518080602001828103825283818151815260200191508051906020019060200280838360005b8381101561036d578082015181840152602081019050610352565b505050509050019250505060405180910390f35b6103ed6004803603606081101561039757600080fd5b81019080803573ffffffffffffffffffffffffffffffffffffffff169060200190929190803573ffffffffffffffffffffffffffffffffffffffff16906020019092919080359060200190929190505050610ea9565b005b6104866004803603604081101561040557600080fd5b81019080803573ffffffffffffffffffffffffffffffffffffffff1690602001909291908035906020019064010000000081111561044257600080fd5b82018360208201111561045457600080fd5b8035906020019184600183028401116401000000008311171561047657600080fd5b9091929391929390505050610f1f565b6040518082815260200191505060405180910390f35b6104e8600480360360408110156104b257600080fd5b81019080803573ffffffffffffffffffffffffffffffffffffffff16906020019092919080359060200190929190505050610f78565b6040518082815260200191505060405180910390f35b61052a6004803603602081101561051457600080fd5b8101908080359060200190929190505050610fd3565b005b610534611090565b604051808273ffffffffffffffffffffffffffffffffffffffff16815260200191505060405180910390f35b61058c6004803603602081101561057657600080fd5b81019080803590602001909291905050506110b6565b604051808273ffffffffffffffffffffffffffffffffffffffff16815260200191505060405180910390f35b610624600480360360608110156105ce57600080fd5b81019080803573ffffffffffffffffffffffffffffffffffffffff169060200190929190803573ffffffffffffffffffffffffffffffffffffffff169060200190929190803590602001909291905050506110f3565b005b6106526004803603602081101561063c57600080fd5b8101908080359060200190929190505050611113565b6040518082815260200191505060405180910390f35b6106946004803603602081101561067e57600080fd5b8101908080359060200190929190505050611136565b604051808273ffffffffffffffffffffffffffffffffffffffff16815260200191505060405180910390f35b6106c861116d565b6040518080602001828103825283818151815260200191508051906020019080838360005b838110156107085780820151818401526020810190506106ed565b50505050905090810190601f1680156107355780820380516001836020036101000a031916815260200191505b509250505060405180910390f35b6107856004803603602081101561075957600080fd5b81019080803573ffffffffffffffffffffffffffffffffffffffff16906020019092919050505061120f565b6040518082815260200191505060405180910390f35b6107a36112e4565b005b6107ad61146f565b604051808273ffffffffffffffffffffffffffffffffffffffff16815260200191505060405180910390f35b6107e1611499565b6040518080602001828103825283818151815260200191508051906020019080838360005b83811015610821578082015181840152602081019050610806565b50505050905090810190601f16801561084e5780820380516001836020036101000a031916815260200191505b509250505060405180910390f35b6108aa6004803603604081101561087257600080fd5b81019080803573ffffffffffffffffffffffffffffffffffffffff16906020019092919080351515906020019092919050505061153b565b005b6109af600480360360808110156108c257600080fd5b81019080803573ffffffffffffffffffffffffffffffffffffffff169060200190929190803573ffffffffffffffffffffffffffffffffffffffff169060200190929190803590602001909291908035906020019064010000000081111561092957600080fd5b82018360208201111561093b57600080fd5b8035906020019184600183028401116401000000008311171561095d57600080fd5b91908080601f016020809104026020016040519081016040528093929190818152602001838380828437600081840152601f19601f8201169050808301925050505050505091929192905050506116f1565b005b6109dd600480360360208110156109c757600080fd5b8101908080359060200190929190505050611769565b6040518080602001828103825283818151815260200191508051906020019080838360005b83811015610a1d578082015181840152602081019050610a02565b50505050905090810190601f168015610a4a5780820380516001836020036101000a031916815260200191505b509250505060405180910390f35b610aba60048036036040811015610a6e57600080fd5b81019080803573ffffffffffffffffffffffffffffffffffffffff169060200190929190803573ffffffffffffffffffffffffffffffffffffffff169060200190929190505050611a52565b60405180821515815260200191505060405180910390f35b610b1460048036036020811015610ae857600080fd5b81019080803573ffffffffffffffffffffffffffffffffffffffff169060200190929190505050611ae6565b005b6000806000837bffffffffffffffffffffffffffffffffffffffffffffffffffffffff19167bffffffffffffffffffffffffffffffffffffffffffffffffffffffff1916815260200190815260200160002060009054906101000a900460ff169050919050565b606060068054600181600116156101000203166002900480601f016020809104026020016040519081016040528092919081815260200182805460018160011615610100020316600290048015610c155780601f10610bea57610100808354040283529160200191610c15565b820191906000526020600020905b815481529060010190602001808311610bf857829003601f168201915b5050505050905090565b6000610c2a82611cf6565b610c7f576040517f08c379a000000000000000000000000000000000000000000000000000000000815260040180806020018281038252602c8152602001806134b3602c913960400191505060405180910390fd5b6004600083815260200190815260200160002060009054906101000a900473ffffffffffffffffffffffffffffffffffffffff169050919050565b6000610cc582611136565b90508073ffffffffffffffffffffffffffffffffffffffff168373ffffffffffffffffffffffffffffffffffffffff161415610d4c576040517f08c379a00000000000000000000000000000000000000000000000000000000081526004018080602001828103825260218152602001806135636021913960400191505060405180910390fd5b8073ffffffffffffffffffffffffffffffffffffffff16610d6b611d13565b73ffffffffffffffffffffffffffffffffffffffff161480610d9a5750610d9981610d94611d13565b611a52565b5b610def576040517f08c379a00000000000000000000000000000000000000000000000000000000081526004018080602001828103825260388152602001806134066038913960400191505060405180910390fd5b610df98383611d1b565b505050565b6000610e0a6002611dd4565b905090565b60606000610e1c3361120f565b905060608167ffffffffffffffff81118015610e3757600080fd5b50604051908082528060200260200182016040528015610e665781602001602082028036833780820191505090505b50905060005b82811015610ea357610e7e3382610f78565b828281518110610e8a57fe5b6020026020010181815250508080600101915050610e6c565b50505090565b610eba610eb4611d13565b82611de9565b610f0f576040517f08c379a00000000000000000000000000000000000000000000000000000000081526004018080602001828103825260318152602001806135846031913960400191505060405180910390fd5b610f1a838383611edd565b505050565b6000610f6f83838080601f016020809104026020016040519081016040528093929190818152602001838380828437600081840152601f19601f8201169050808301925050505050505085612120565b90509392505050565b6000610fcb82600160008673ffffffffffffffffffffffffffffffffffffffff1673ffffffffffffffffffffffffffffffffffffffff16815260200190815260200160002061216290919063ffffffff16565b905092915050565b806000610fdf82611136565b90508073ffffffffffffffffffffffffffffffffffffffff163373ffffffffffffffffffffffffffffffffffffffff1614611082576040517f08c379a000000000000000000000000000000000000000000000000000000000815260040180806020018281038252601f8152602001807f6d75737420626520746865206f776e6572206f662074686520746f6b656e210081525060200191505060405180910390fd5b61108b8361217c565b505050565b600c60009054906101000a900473ffffffffffffffffffffffffffffffffffffffff1681565b6000600d600083815260200190815260200160002060009054906101000a900473ffffffffffffffffffffffffffffffffffffffff169050919050565b61110e838383604051806020016040528060008152506116f1565b505050565b60008061112a8360026122b690919063ffffffff16565b50905080915050919050565b6000611166826040518060600160405280602981526020016134686029913960026122e29092919063ffffffff16565b9050919050565b606060098054600181600116156101000203166002900480601f0160208091040260200160405190810160405280929190818152602001828054600181600116156101000203166002900480156112055780601f106111da57610100808354040283529160200191611205565b820191906000526020600020905b8154815290600101906020018083116111e857829003601f168201915b5050505050905090565b60008073ffffffffffffffffffffffffffffffffffffffff168273ffffffffffffffffffffffffffffffffffffffff161415611296576040517f08c379a000000000000000000000000000000000000000000000000000000000815260040180806020018281038252602a81526020018061343e602a913960400191505060405180910390fd5b6112dd600160008473ffffffffffffffffffffffffffffffffffffffff1673ffffffffffffffffffffffffffffffffffffffff168152602001908152602001600020612301565b9050919050565b6112ec611d13565b73ffffffffffffffffffffffffffffffffffffffff16600a60009054906101000a900473ffffffffffffffffffffffffffffffffffffffff1673ffffffffffffffffffffffffffffffffffffffff16146113ae576040517f08c379a00000000000000000000000000000000000000000000000000000000081526004018080602001828103825260208152602001807f4f776e61626c653a2063616c6c6572206973206e6f7420746865206f776e657281525060200191505060405180910390fd5b600073ffffffffffffffffffffffffffffffffffffffff16600a60009054906101000a900473ffffffffffffffffffffffffffffffffffffffff1673ffffffffffffffffffffffffffffffffffffffff167f8be0079c531659141344cd1fd0a4f28419497f9722a3daafe3b4186f6b6457e060405160405180910390a36000600a60006101000a81548173ffffffffffffffffffffffffffffffffffffffff021916908373ffffffffffffffffffffffffffffffffffffffff160217905550565b6000600a60009054906101000a900473ffffffffffffffffffffffffffffffffffffffff16905090565b606060078054600181600116156101000203166002900480601f0160208091040260200160405190810160405280929190818152602001828054600181600116156101000203166002900480156115315780601f1061150657610100808354040283529160200191611531565b820191906000526020600020905b81548152906001019060200180831161151457829003601f168201915b5050505050905090565b611543611d13565b73ffffffffffffffffffffffffffffffffffffffff168273ffffffffffffffffffffffffffffffffffffffff1614156115e4576040517f08c379a00000000000000000000000000000000000000000000000000000000081526004018080602001828103825260198152602001807f4552433732313a20617070726f766520746f2063616c6c65720000000000000081525060200191505060405180910390fd5b80600560006115f1611d13565b73ffffffffffffffffffffffffffffffffffffffff1673ffffffffffffffffffffffffffffffffffffffff16815260200190815260200160002060008473ffffffffffffffffffffffffffffffffffffffff1673ffffffffffffffffffffffffffffffffffffffff16815260200190815260200160002060006101000a81548160ff0219169083151502179055508173ffffffffffffffffffffffffffffffffffffffff1661169e611d13565b73ffffffffffffffffffffffffffffffffffffffff167f17307eab39ab6107e8899845ad3d59bd9653f200f220920489ca2b5937696c318360405180821515815260200191505060405180910390a35050565b6117026116fc611d13565b83611de9565b611757576040517f08c379a00000000000000000000000000000000000000000000000000000000081526004018080602001828103825260318152602001806135846031913960400191505060405180910390fd5b61176384848484612316565b50505050565b606061177482611cf6565b6117c9576040517f08c379a000000000000000000000000000000000000000000000000000000000815260040180806020018281038252602f815260200180613534602f913960400191505060405180910390fd5b6060600860008481526020019081526020016000208054600181600116156101000203166002900480601f0160208091040260200160405190810160405280929190818152602001828054600181600116156101000203166002900480156118725780601f1061184757610100808354040283529160200191611872565b820191906000526020600020905b81548152906001019060200180831161185557829003601f168201915b505050505090506000600980546001816001161561010002031660029004905014156118a15780915050611a4d565b60008151111561197a57600981604051602001808380546001816001161561010002031660029004801561190c5780601f106118ea57610100808354040283529182019161190c565b820191906000526020600020905b8154815290600101906020018083116118f8575b505082805190602001908083835b6020831061193d578051825260208201915060208101905060208303925061191a565b6001836020036101000a03801982511681845116808217855250505050505090500192505050604051602081830303815290604052915050611a4d565b600961198584612388565b60405160200180838054600181600116156101000203166002900480156119e35780601f106119c15761010080835404028352918201916119e3565b820191906000526020600020905b8154815290600101906020018083116119cf575b505082805190602001908083835b60208310611a1457805182526020820191506020810190506020830392506119f1565b6001836020036101000a038019825116818451168082178552505050505050905001925050506040516020818303038152906040529150505b919050565b6000600560008473ffffffffffffffffffffffffffffffffffffffff1673ffffffffffffffffffffffffffffffffffffffff16815260200190815260200160002060008373ffffffffffffffffffffffffffffffffffffffff1673ffffffffffffffffffffffffffffffffffffffff16815260200190815260200160002060009054906101000a900460ff16905092915050565b611aee611d13565b73ffffffffffffffffffffffffffffffffffffffff16600a60009054906101000a900473ffffffffffffffffffffffffffffffffffffffff1673ffffffffffffffffffffffffffffffffffffffff1614611bb0576040517f08c379a00000000000000000000000000000000000000000000000000000000081526004018080602001828103825260208152602001807f4f776e61626c653a2063616c6c6572206973206e6f7420746865206f776e657281525060200191505060405180910390fd5b600073ffffffffffffffffffffffffffffffffffffffff168173ffffffffffffffffffffffffffffffffffffffff161415611c36576040517f08c379a00000000000000000000000000000000000000000000000000000000081526004018080602001828103825260268152602001806133906026913960400191505060405180910390fd5b8073ffffffffffffffffffffffffffffffffffffffff16600a60009054906101000a900473ffffffffffffffffffffffffffffffffffffffff1673ffffffffffffffffffffffffffffffffffffffff167f8be0079c531659141344cd1fd0a4f28419497f9722a3daafe3b4186f6b6457e060405160405180910390a380600a60006101000a81548173ffffffffffffffffffffffffffffffffffffffff021916908373ffffffffffffffffffffffffffffffffffffffff16021790555050565b6000611d0c8260026124cf90919063ffffffff16565b9050919050565b600033905090565b816004600083815260200190815260200160002060006101000a81548173ffffffffffffffffffffffffffffffffffffffff021916908373ffffffffffffffffffffffffffffffffffffffff160217905550808273ffffffffffffffffffffffffffffffffffffffff16611d8e83611136565b73ffffffffffffffffffffffffffffffffffffffff167f8c5be1e5ebec7d5bd14f71427d1e84f3dd0314c0f7b2291e5b200ac8c7c3b92560405160405180910390a45050565b6000611de2826000016124e9565b9050919050565b6000611df482611cf6565b611e49576040517f08c379a000000000000000000000000000000000000000000000000000000000815260040180806020018281038252602c8152602001806133da602c913960400191505060405180910390fd5b6000611e5483611136565b90508073ffffffffffffffffffffffffffffffffffffffff168473ffffffffffffffffffffffffffffffffffffffff161480611ec357508373ffffffffffffffffffffffffffffffffffffffff16611eab84610c1f565b73ffffffffffffffffffffffffffffffffffffffff16145b80611ed45750611ed38185611a52565b5b91505092915050565b8273ffffffffffffffffffffffffffffffffffffffff16611efd82611136565b73ffffffffffffffffffffffffffffffffffffffff1614611f69576040517f08c379a000000000000000000000000000000000000000000000000000000000815260040180806020018281038252602981526020018061350b6029913960400191505060405180910390fd5b600073ffffffffffffffffffffffffffffffffffffffff168273ffffffffffffffffffffffffffffffffffffffff161415611fef576040517f08c379a00000000000000000000000000000000000000000000000000000000081526004018080602001828103825260248152602001806133b66024913960400191505060405180910390fd5b611ffa8383836124fa565b612005600082611d1b565b61205681600160008673ffffffffffffffffffffffffffffffffffffffff1673ffffffffffffffffffffffffffffffffffffffff1681526020019081526020016000206124ff90919063ffffffff16565b506120a881600160008573ffffffffffffffffffffffffffffffffffffffff1673ffffffffffffffffffffffffffffffffffffffff16815260200190815260200160002061251990919063ffffffff16565b506120bf818360026125339092919063ffffffff16565b50808273ffffffffffffffffffffffffffffffffffffffff168473ffffffffffffffffffffffffffffffffffffffff167fddf252ad1be2c89b69c2b068fc378daa952ba7f163c4a11628f55a4df523b3ef60405160405180910390a4505050565b600080600b549050600b600081548092919060010191905055506121448382612568565b61214e818561275c565b61215881846127e6565b8091505092915050565b6000612171836000018361283c565b60001c905092915050565b600061218782611136565b9050612195816000846124fa565b6121a0600083611d1b565b600060086000848152602001908152602001600020805460018160011615610100020316600290049050146121ef576008600083815260200190815260200160002060006121ee9190613256565b5b61224082600160008473ffffffffffffffffffffffffffffffffffffffff1673ffffffffffffffffffffffffffffffffffffffff1681526020019081526020016000206124ff90919063ffffffff16565b506122558260026128bf90919063ffffffff16565b5081600073ffffffffffffffffffffffffffffffffffffffff168273ffffffffffffffffffffffffffffffffffffffff167fddf252ad1be2c89b69c2b068fc378daa952ba7f163c4a11628f55a4df523b3ef60405160405180910390a45050565b6000806000806122c986600001866128d9565b915091508160001c8160001c9350935050509250929050565b60006122f5846000018460001b84612972565b60001c90509392505050565b600061230f82600001612a68565b9050919050565b612321848484611edd565b61232d84848484612a79565b612382576040517f08c379a000000000000000000000000000000000000000000000000000000000815260040180806020018281038252603281526020018061335e6032913960400191505060405180910390fd5b50505050565b606060008214156123d0576040518060400160405280600181526020017f300000000000000000000000000000000000000000000000000000000000000081525090506124ca565b600082905060005b600082146123fa578080600101915050600a82816123f257fe5b0491506123d8565b60608167ffffffffffffffff8111801561241357600080fd5b506040519080825280601f01601f1916602001820160405280156124465781602001600182028036833780820191505090505b50905060006001830390508593505b600084146124c257600a848161246757fe5b0660300160f81b8282806001900393508151811061248157fe5b60200101907effffffffffffffffffffffffffffffffffffffffffffffffffffffffffffff1916908160001a905350600a84816124ba57fe5b049350612455565b819450505050505b919050565b60006124e1836000018360001b612c92565b905092915050565b600081600001805490509050919050565b505050565b6000612511836000018360001b612cb5565b905092915050565b600061252b836000018360001b612d9d565b905092915050565b600061255f846000018460001b8473ffffffffffffffffffffffffffffffffffffffff1660001b612e0d565b90509392505050565b600073ffffffffffffffffffffffffffffffffffffffff168273ffffffffffffffffffffffffffffffffffffffff16141561260b576040517f08c379a00000000000000000000000000000000000000000000000000000000081526004018080602001828103825260208152602001807f4552433732313a206d696e7420746f20746865207a65726f206164647265737381525060200191505060405180910390fd5b61261481611cf6565b15612687576040517f08c379a000000000000000000000000000000000000000000000000000000000815260040180806020018281038252601c8152602001807f4552433732313a20746f6b656e20616c7265616479206d696e7465640000000081525060200191505060405180910390fd5b612693600083836124fa565b6126e481600160008573ffffffffffffffffffffffffffffffffffffffff1673ffffffffffffffffffffffffffffffffffffffff16815260200190815260200160002061251990919063ffffffff16565b506126fb818360026125339092919063ffffffff16565b50808273ffffffffffffffffffffffffffffffffffffffff16600073ffffffffffffffffffffffffffffffffffffffff167fddf252ad1be2c89b69c2b068fc378daa952ba7f163c4a11628f55a4df523b3ef60405160405180910390a45050565b61276582611cf6565b6127ba576040517f08c379a000000000000000000000000000000000000000000000000000000000815260040180806020018281038252602c8152602001806134df602c913960400191505060405180910390fd5b806008600084815260200190815260200160002090805190602001906127e192919061329e565b505050565b80600d600084815260200190815260200160002060006101000a81548173ffffffffffffffffffffffffffffffffffffffff021916908373ffffffffffffffffffffffffffffffffffffffff1602179055505050565b60008183600001805490501161289d576040517f08c379a000000000000000000000000000000000000000000000000000000000815260040180806020018281038252602281526020018061333c6022913960400191505060405180910390fd5b8260000182815481106128ac57fe5b9060005260206000200154905092915050565b60006128d1836000018360001b612ee9565b905092915050565b6000808284600001805490501161293b576040517f08c379a00000000000000000000000000000000000000000000000000000000081526004018080602001828103825260228152602001806134916022913960400191505060405180910390fd5b600084600001848154811061294c57fe5b906000526020600020906002020190508060000154816001015492509250509250929050565b60008084600101600085815260200190815260200160002054905060008114158390612a39576040517f08c379a00000000000000000000000000000000000000000000000000000000081526004018080602001828103825283818151815260200191508051906020019080838360005b838110156129fe5780820151818401526020810190506129e3565b50505050905090810190601f168015612a2b5780820380516001836020036101000a031916815260200191505b509250505060405180910390fd5b50846000016001820381548110612a4c57fe5b9060005260206000209060020201600101549150509392505050565b600081600001805490509050919050565b6000612a9a8473ffffffffffffffffffffffffffffffffffffffff16613002565b612aa75760019050612c8a565b6060612c1163150b7a0260e01b612abc611d13565b888787604051602401808573ffffffffffffffffffffffffffffffffffffffff1681526020018473ffffffffffffffffffffffffffffffffffffffff16815260200183815260200180602001828103825283818151815260200191508051906020019080838360005b83811015612b40578082015181840152602081019050612b25565b50505050905090810190601f168015612b6d5780820380516001836020036101000a031916815260200191505b5095505050505050604051602081830303815290604052907bffffffffffffffffffffffffffffffffffffffffffffffffffffffff19166020820180517bffffffffffffffffffffffffffffffffffffffffffffffffffffffff838183161783525050505060405180606001604052806032815260200161335e603291398773ffffffffffffffffffffffffffffffffffffffff166130159092919063ffffffff16565b90506000818060200190516020811015612c2a57600080fd5b8101908080519060200190929190505050905063150b7a0260e01b7bffffffffffffffffffffffffffffffffffffffffffffffffffffffff1916817bffffffffffffffffffffffffffffffffffffffffffffffffffffffff191614925050505b949350505050565b600080836001016000848152602001908152602001600020541415905092915050565b60008083600101600084815260200190815260200160002054905060008114612d915760006001820390506000600186600001805490500390506000866000018281548110612d0057fe5b9060005260206000200154905080876000018481548110612d1d57fe5b9060005260206000200181905550600183018760010160008381526020019081526020016000208190555086600001805480612d5557fe5b60019003818190600052602060002001600090559055866001016000878152602001908152602001600020600090556001945050505050612d97565b60009150505b92915050565b6000612da9838361302d565b612e02578260000182908060018154018082558091505060019003906000526020600020016000909190919091505582600001805490508360010160008481526020019081526020016000208190555060019050612e07565b600090505b92915050565b6000808460010160008581526020019081526020016000205490506000811415612eb457846000016040518060400160405280868152602001858152509080600181540180825580915050600190039060005260206000209060020201600090919091909150600082015181600001556020820151816001015550508460000180549050856001016000868152602001908152602001600020819055506001915050612ee2565b82856000016001830381548110612ec757fe5b90600052602060002090600202016001018190555060009150505b9392505050565b60008083600101600084815260200190815260200160002054905060008114612ff65760006001820390506000600186600001805490500390506000866000018281548110612f3457fe5b9060005260206000209060020201905080876000018481548110612f5457fe5b9060005260206000209060020201600082015481600001556001820154816001015590505060018301876001016000836000015481526020019081526020016000208190555086600001805480612fa757fe5b6001900381819060005260206000209060020201600080820160009055600182016000905550509055866001016000878152602001908152602001600020600090556001945050505050612ffc565b60009150505b92915050565b600080823b905060008111915050919050565b60606130248484600085613050565b90509392505050565b600080836001016000848152602001908152602001600020541415905092915050565b606061305b85613002565b6130cd576040517f08c379a000000000000000000000000000000000000000000000000000000000815260040180806020018281038252601d8152602001807f416464726573733a2063616c6c20746f206e6f6e2d636f6e747261637400000081525060200191505060405180910390fd5b600060608673ffffffffffffffffffffffffffffffffffffffff1685876040518082805190602001908083835b6020831061311d57805182526020820191506020810190506020830392506130fa565b6001836020036101000a03801982511681845116808217855250505050505090500191505060006040518083038185875af1925050503d806000811461317f576040519150601f19603f3d011682016040523d82523d6000602084013e613184565b606091505b5091509150811561319957809250505061324e565b6000815111156131ac5780518082602001fd5b836040517f08c379a00000000000000000000000000000000000000000000000000000000081526004018080602001828103825283818151815260200191508051906020019080838360005b838110156132135780820151818401526020810190506131f8565b50505050905090810190601f1680156132405780820380516001836020036101000a031916815260200191505b509250505060405180910390fd5b949350505050565b50805460018160011615610100020316600290046000825580601f1061327c575061329b565b601f01602090049060005260206000209081019061329a919061331e565b5b50565b828054600181600116156101000203166002900490600052602060002090601f016020900481019282601f106132df57805160ff191683800117855561330d565b8280016001018555821561330d579182015b8281111561330c5782518255916020019190600101906132f1565b5b50905061331a919061331e565b5090565b5b8082111561333757600081600090555060010161331f565b509056fe456e756d657261626c655365743a20696e646578206f7574206f6620626f756e64734552433732313a207472616e7366657220746f206e6f6e20455243373231526563656976657220696d706c656d656e7465724f776e61626c653a206e6577206f776e657220697320746865207a65726f20616464726573734552433732313a207472616e7366657220746f20746865207a65726f20616464726573734552433732313a206f70657261746f7220717565727920666f72206e6f6e6578697374656e7420746f6b656e4552433732313a20617070726f76652063616c6c6572206973206e6f74206f776e6572206e6f7220617070726f76656420666f7220616c6c4552433732313a2062616c616e636520717565727920666f7220746865207a65726f20616464726573734552433732313a206f776e657220717565727920666f72206e6f6e6578697374656e7420746f6b656e456e756d657261626c654d61703a20696e646578206f7574206f6620626f756e64734552433732313a20617070726f76656420717565727920666f72206e6f6e6578697374656e7420746f6b656e4552433732314d657461646174613a2055524920736574206f66206e6f6e6578697374656e7420746f6b656e4552433732313a207472616e73666572206f6620746f6b656e2074686174206973206e6f74206f776e4552433732314d657461646174613a2055524920717565727920666f72206e6f6e6578697374656e7420746f6b656e4552433732313a20617070726f76616c20746f2063757272656e74206f776e65724552433732313a207472616e736665722063616c6c6572206973206e6f74206f776e6572206e6f7220617070726f766564a2646970667358221220b2d93460182509c99487c57948980b5033edfa086b87646e5244d22d3e4eb91764736f6c634300060c0033",
  "immutableReferences": {},
  "source": "pragma solidity ^0.6.0;\n\nimport \"node_modules/@openzeppelin/contracts/token/ERC721/ERC721.sol\";\nimport \"node_modules/@openzeppelin/contracts/access/Ownable.sol\";\nimport \"@openzeppelin/contracts/math/SafeMath.sol\";\n\n\n\nimport \"contracts/interfaces/IAuctionERC721.sol\";\n\n// will add the nft details in the deployment script\n// contract to handle minting, removal... of the nft used in auctions\ncontract AuctionERC721 is ERC721, Ownable, IAuctionERC721 {\n\n  // Counter variable for creation of token IDs and used to pass to the mint function, verifying nft doesn't exist yet\n  uint256 private idCounter;\n\n  address public whitelisted;\n\n  //mapping of token ids to their owners. Not to forget that state variables _tokenOwners will also be updated upon minting, transfer...\n  mapping (uint256 => address) private tokenCreators;\n\n\n  constructor (\n    string memory _name,\n    string memory _symbol\n  )\n  public\n  ERC721(_name, _symbol)\n     {\n\n     }\n\n  //\n  modifier onlyTokenOwner(uint256 _tokenId) {\n        address owner = ownerOf(_tokenId);\n        require(msg.sender == owner, \"must be the owner of the token!\");\n        _;\n    }\n\n  /**\n    * @dev Gets the creator of the token.\n    * @param _tokenId uint256 ID of the token.\n    * @return address of the creator.\n    */\n  function tokenCreator(uint256 _tokenId)\n  public\n  view\n  returns (address)\n  {\n      return tokenCreators[_tokenId];\n  }\n\n  /**\n    * @dev Internal function for setting the token's creator.\n    * @param _tokenId uint256 id of the token.\n    * @param _creator address of the creator of the token.\n    */\n  function _setTokenCreator(uint256 _tokenId, address _creator)\n  internal\n  {\n      tokenCreators[_tokenId] = _creator;\n  }\n\n  /**\n     * @dev Adds a new unique token to the supply.\n     * @param _uri string metadata uri associated with the token.\n     */\n  function addNewToken(address _receiver, string calldata _uri)\n  external\n  //onlyTokenOwner(_tokenId)\n  override // marks as overrode as _setTokenURI is virtual\n  returns (uint256 _tokenId)\n  {\n    return _createToken(_uri, _receiver);\n  }\n\n  /*\n  function sendToken(address _sender, address _receiver, uint256 _tokenId)\n  external\n  {\n    safeTransferFrom(_sender, _receiver, _tokenId);\n  }\n  */\n\n  function removeToken(uint256 _tokenId)\n  external\n  onlyTokenOwner(_tokenId)\n  override // marks as overrode as _burn is virtual\n  {\n    _burn(_tokenId);\n  }\n\n  /**\n     * @dev Internal function creating a new token.\n     * @param _uri string metadata uri associated with the token\n     * @param _creator address of the creator of the token.\n     */\n  function _createToken(string memory _uri, address _creator)\n  internal\n  returns (uint256)\n  {\n    uint256 newId = idCounter;\n    idCounter++;\n    _mint(_creator, newId); // found in ERC721.sol\n    _setTokenURI(newId, _uri); // found in ERC721.sol\n    _setTokenCreator(newId, _creator);\n    return newId;\n  }\n\n  function getTokenCreators()\n  external\n  view\n  override\n  returns (uint256[] memory)\n  {\n    uint256 count = balanceOf(msg.sender);\n    uint256[] memory result = new uint256[](count);\n    for (uint i = 0; i < count; i++) {\n      result[i] = tokenOfOwnerByIndex(msg.sender, i);\n    }\n  }\n\n}\n",
  "sourcePath": "/home/thibault/Documents/Ethereum/ConsensysBootcamp/FinalProjectThibault/contracts/AuctionERC721.sol",
  "compiler": {
    "name": "solc",
    "version": "0.6.12+commit.27d51765.Emscripten.clang"
  },
  "schemaVersion": "3.3.1",
  "updatedAt": "2020-11-07T16:57:54.552Z",
  "networkType": "ethereum",
  "devdoc": {
    "kind": "dev",
    "methods": {
      "addNewToken(address,string)": {
        "details": "Adds a new unique token to the supply.",
        "params": {
          "_uri": "string metadata uri associated with the token."
        }
      },
      "approve(address,uint256)": {
        "details": "See {IERC721-approve}."
      },
      "balanceOf(address)": {
        "details": "See {IERC721-balanceOf}."
      },
      "baseURI()": {
        "details": "Returns the base URI set via {_setBaseURI}. This will be automatically added as a prefix in {tokenURI} to each token's URI, or to the token ID if no specific URI is set for that token ID."
      },
      "getApproved(uint256)": {
        "details": "See {IERC721-getApproved}."
      },
      "isApprovedForAll(address,address)": {
        "details": "See {IERC721-isApprovedForAll}."
      },
      "name()": {
        "details": "See {IERC721Metadata-name}."
      },
      "owner()": {
        "details": "Returns the address of the current owner."
      },
      "ownerOf(uint256)": {
        "details": "See {IERC721-ownerOf}."
      },
      "renounceOwnership()": {
        "details": "Leaves the contract without owner. It will not be possible to call `onlyOwner` functions anymore. Can only be called by the current owner. NOTE: Renouncing ownership will leave the contract without an owner, thereby removing any functionality that is only available to the owner."
      },
      "safeTransferFrom(address,address,uint256)": {
        "details": "See {IERC721-safeTransferFrom}."
      },
      "safeTransferFrom(address,address,uint256,bytes)": {
        "details": "See {IERC721-safeTransferFrom}."
      },
      "setApprovalForAll(address,bool)": {
        "details": "See {IERC721-setApprovalForAll}."
      },
      "supportsInterface(bytes4)": {
        "details": "See {IERC165-supportsInterface}. Time complexity O(1), guaranteed to always use less than 30 000 gas."
      },
      "symbol()": {
        "details": "See {IERC721Metadata-symbol}."
      },
      "tokenByIndex(uint256)": {
        "details": "See {IERC721Enumerable-tokenByIndex}."
      },
      "tokenCreator(uint256)": {
        "details": "Gets the creator of the token.",
        "params": {
          "_tokenId": "uint256 ID of the token."
        },
        "returns": {
          "_0": "address of the creator."
        }
      },
      "tokenOfOwnerByIndex(address,uint256)": {
        "details": "See {IERC721Enumerable-tokenOfOwnerByIndex}."
      },
      "tokenURI(uint256)": {
        "details": "See {IERC721Metadata-tokenURI}."
      },
      "totalSupply()": {
        "details": "See {IERC721Enumerable-totalSupply}."
      },
      "transferFrom(address,address,uint256)": {
        "details": "See {IERC721-transferFrom}."
      },
      "transferOwnership(address)": {
        "details": "Transfers ownership of the contract to a new account (`newOwner`). Can only be called by the current owner."
      }
    },
    "version": 1
  },
  "userdoc": {
    "kind": "user",
    "methods": {},
    "version": 1
  }
}