{
  "contractName": "AuctionContract",
  "abi": [
    {
      "inputs": [],
      "stateMutability": "nonpayable",
      "type": "constructor"
    },
    {
      "inputs": [
        {
          "internalType": "uint256",
          "name": "",
          "type": "uint256"
        }
      ],
      "name": "auctions",
      "outputs": [
        {
          "internalType": "address payable",
          "name": "auctioneer",
          "type": "address"
        },
        {
          "internalType": "address payable",
          "name": "currentWinner",
          "type": "address"
        },
        {
          "internalType": "uint256",
          "name": "auctionId",
          "type": "uint256"
        },
        {
          "internalType": "enum AuctionContract.AuctionStatus",
          "name": "auctionStatus",
          "type": "uint8"
        },
        {
          "internalType": "uint256",
          "name": "startPrice",
          "type": "uint256"
        },
        {
          "internalType": "uint256",
          "name": "tokenId",
          "type": "uint256"
        },
        {
          "internalType": "bool",
          "name": "auctionActive",
          "type": "bool"
        }
      ],
      "stateMutability": "view",
      "type": "function"
    },
    {
      "inputs": [],
      "name": "initializeAuction",
      "outputs": [],
      "stateMutability": "nonpayable",
      "type": "function"
    },
    {
      "inputs": [],
      "name": "startAuction",
      "outputs": [],
      "stateMutability": "nonpayable",
      "type": "function"
    },
    {
      "inputs": [],
      "name": "bidAuction",
      "outputs": [],
      "stateMutability": "nonpayable",
      "type": "function"
    },
    {
      "inputs": [
        {
          "internalType": "uint256",
          "name": "_auctionId",
          "type": "uint256"
        }
      ],
      "name": "withdrawNft",
      "outputs": [],
      "stateMutability": "nonpayable",
      "type": "function"
    },
    {
      "inputs": [],
      "name": "withdrawBid",
      "outputs": [],
      "stateMutability": "nonpayable",
      "type": "function"
    }
  ],
  "bytecode": "0x608060405234801561001057600080fd5b50336000806101000a81548173ffffffffffffffffffffffffffffffffffffffff021916908373ffffffffffffffffffffffffffffffffffffffff16021790555061058a806100606000396000f3fe608060405234801561001057600080fd5b50600436106100625760003560e01c806337271cc714610067578063571a26a0146100715780636b64c769146101165780636e06a00b14610120578063910efae81461012a578063b2031bee14610158575b600080fd5b61006f610162565b005b61009d6004803603602081101561008757600080fd5b81019080803590602001909291905050506102a0565b604051808873ffffffffffffffffffffffffffffffffffffffff1681526020018773ffffffffffffffffffffffffffffffffffffffff1681526020018681526020018560028111156100eb57fe5b8152602001848152602001838152602001821515815260200197505050505050505060405180910390f35b61011e61033c565b005b61012861033e565b005b6101566004803603602081101561014057600080fd5b8101908080359060200190929190505050610340565b005b610160610552565b005b6000600260003373ffffffffffffffffffffffffffffffffffffffff1673ffffffffffffffffffffffffffffffffffffffff168152602001908152602001600020541415610218576040517f08c379a00000000000000000000000000000000000000000000000000000000081526004018080602001828103825260128152602001807f6e6f2062696420746f207769746864726177000000000000000000000000000081525060200191505060405180910390fd5b3373ffffffffffffffffffffffffffffffffffffffff166108fc600260003373ffffffffffffffffffffffffffffffffffffffff1673ffffffffffffffffffffffffffffffffffffffff168152602001908152602001600020549081150290604051600060405180830381858888f1935050505015801561029d573d6000803e3d6000fd5b50565b60016020528060005260406000206000915090508060000160009054906101000a900473ffffffffffffffffffffffffffffffffffffffff16908060010160009054906101000a900473ffffffffffffffffffffffffffffffffffffffff16908060020154908060030160009054906101000a900460ff16908060040154908060050154908060060160009054906101000a900460ff16905087565b565b565b6000600160008381526020019081526020016000209050600115158160060160009054906101000a900460ff161515146103e2576040517f08c379a00000000000000000000000000000000000000000000000000000000081526004018080602001828103825260168152602001807f41756374696f6e206d757374206265206163746976650000000000000000000081525060200191505060405180910390fd5b8060010160009054906101000a900473ffffffffffffffffffffffffffffffffffffffff1673ffffffffffffffffffffffffffffffffffffffff163373ffffffffffffffffffffffffffffffffffffffff161461043e57600080fd5b600015158160060160009054906101000a905050506000600260003373ffffffffffffffffffffffffffffffffffffffff1673ffffffffffffffffffffffffffffffffffffffff168152602001908152602001600020541415610509576040517f08c379a000000000000000000000000000000000000000000000000000000000815260040180806020018281038252600e8152602001807f6e6f206269647320706c6163656400000000000000000000000000000000000081525060200191505060405180910390fd5b6000600260003373ffffffffffffffffffffffffffffffffffffffff1673ffffffffffffffffffffffffffffffffffffffff168152602001908152602001600020819055505050565b56fea26469706673582212206a5dde61aee142e417a324f7a83310357f821a8240fdd38d6b1d635c1647d3ae64736f6c634300060c0033",
  "immutableReferences": {},
  "source": "pragma solidity ^0.6.0;\n\n//import \"node_modules/@openzeppelin/contracts/token/ERC721/ERC721.sol\";\nimport \"@openzeppelin/contracts/math/SafeMath.sol\";\n\nimport \"contracts/interfaces/IAuctionERC721.sol\";\n\ncontract AuctionContract {\n\n  address private administrator;\n  //mapping of auctionId to AuctionDetails\n  mapping (uint256 => AuctionDetails) public auctions;\n  //pull over push design\n  mapping(address => uint) bids;\n  //enum to check auction status\n  enum AuctionStatus { NotStarted, Bidding, EndAuction }\n\n  constructor()\n    public {\n      administrator = msg.sender;\n    }\n\n  struct AuctionDetails {\n    address payable auctioneer;\n    address payable currentWinner;\n    //ERC721 nftContract; //will initially be the address provided by msg.sender when filling a box maybe so that nftContract: ERC721(address);\n    uint auctionId;\n    AuctionStatus auctionStatus;\n    uint startPrice;\n    uint tokenId;\n    bool auctionActive;\n    //address[] bidders;\n    //uint minimumIncrement;\n    //variable for auction duration as well\n  }\n\n  modifier nftOwner () {\n    //each ERC721 token has a tokenId\n    //address owner = ownerOf(_tokenId);\n    require(msg.sender == administrator, \"must be the owner of the token\");\n    _;\n  }\n\n  function initializeAuction () external {\n    //set to active\n  }\n\n  function startAuction () external {\n\n  }\n\n  function bidAuction () external {\n\n  }\n  /*\n  function endBiddingPhase (uint256 _tokenId) nftOwner(uint _tokenId) public {\n\n  }\n  */\n\n  function withdrawNft (uint256 _auctionId) public  {\n    AuctionDetails storage details = auctions[_auctionId];\n    require(details.auctionActive == true, \"Auction must be active\");\n    require(msg.sender == details.currentWinner);\n    details.auctionActive == false;\n    require(bids[msg.sender] != 0, \"no bids placed\");\n    bids[msg.sender] = 0;\n    //details.nftContract.safeTransferFrom(details.currentWinner, msg.sender, details.tokenId);\n  }\n\n  function withdrawBid () public {\n    //to implement pull over push pattern\n    require(bids[msg.sender] != 0, \"no bid to withdraw\");\n    //bids[msg.sender] = 0;\n    //what happens to the current winner variable if highest bidder withdraw his/her bid??\n    msg.sender.transfer(bids[msg.sender]);\n  }\n\n\n  }\n",
  "sourcePath": "/home/thibault/Documents/Ethereum/ConsensysBootcamp/FinalProjectThibault/contracts/AuctionContract.sol",
  "compiler": {
    "name": "solc",
    "version": "0.6.12+commit.27d51765.Emscripten.clang"
  },
  "schemaVersion": "3.3.1",
  "updatedAt": "2020-11-02T13:18:51.014Z",
  "devdoc": {
    "kind": "dev",
    "methods": {},
    "version": 1
  },
  "userdoc": {
    "kind": "user",
    "methods": {},
    "version": 1
  }
}