{
  "contractName": "AuctionNft",
  "abi": [
    {
      "inputs": [
        {
          "internalType": "address",
          "name": "_auctionERC721",
          "type": "address"
        }
      ],
      "stateMutability": "nonpayable",
      "type": "constructor"
    },
    {
      "anonymous": false,
      "inputs": [
        {
          "indexed": true,
          "internalType": "address",
          "name": "_auctionERC721",
          "type": "address"
        },
        {
          "indexed": false,
          "internalType": "uint256",
          "name": "_timestamp",
          "type": "uint256"
        }
      ],
      "name": "NewAuctionERC721",
      "type": "event"
    },
    {
      "inputs": [],
      "name": "auctionERC721",
      "outputs": [
        {
          "internalType": "contract IAuctionERC721",
          "name": "",
          "type": "address"
        }
      ],
      "stateMutability": "view",
      "type": "function"
    },
    {
      "inputs": [],
      "name": "createAuction",
      "outputs": [],
      "stateMutability": "nonpayable",
      "type": "function"
    },
    {
      "inputs": [
        {
          "internalType": "address",
          "name": "_auctionERC721",
          "type": "address"
        }
      ],
      "name": "setContractERC721",
      "outputs": [],
      "stateMutability": "nonpayable",
      "type": "function"
    }
  ],
  "bytecode": "0x608060405234801561001057600080fd5b506040516104753803806104758339818101604052602081101561003357600080fd5b81019080805190602001909291905050506100538161009a60201b60201c565b33600160006101000a81548173ffffffffffffffffffffffffffffffffffffffff021916908373ffffffffffffffffffffffffffffffffffffffff160217905550506101ee565b3373ffffffffffffffffffffffffffffffffffffffff16600160009054906101000a900473ffffffffffffffffffffffffffffffffffffffff1673ffffffffffffffffffffffffffffffffffffffff161461015d576040517f08c379a000000000000000000000000000000000000000000000000000000000815260040180806020018281038252601f8152602001807f796f7520617265206e6f7420617574686f72697a656420666f7220746869730081525060200191505060405180910390fd5b806000806101000a81548173ffffffffffffffffffffffffffffffffffffffff021916908373ffffffffffffffffffffffffffffffffffffffff1602179055508073ffffffffffffffffffffffffffffffffffffffff167fc3ed467480c03780e2ec27d1db0b8101f06a31fc4b8dca9290c5511ec3b6df6b426040518082815260200191505060405180910390a250565b610278806101fd6000396000f3fe608060405234801561001057600080fd5b50600436106100415760003560e01c80631000f298146100465780638b3e491d1461008a578063f5811447146100be575b600080fd5b6100886004803603602081101561005c57600080fd5b81019080803573ffffffffffffffffffffffffffffffffffffffff1690602001909291905050506100c8565b005b61009261021c565b604051808273ffffffffffffffffffffffffffffffffffffffff16815260200191505060405180910390f35b6100c6610240565b005b3373ffffffffffffffffffffffffffffffffffffffff16600160009054906101000a900473ffffffffffffffffffffffffffffffffffffffff1673ffffffffffffffffffffffffffffffffffffffff161461018b576040517f08c379a000000000000000000000000000000000000000000000000000000000815260040180806020018281038252601f8152602001807f796f7520617265206e6f7420617574686f72697a656420666f7220746869730081525060200191505060405180910390fd5b806000806101000a81548173ffffffffffffffffffffffffffffffffffffffff021916908373ffffffffffffffffffffffffffffffffffffffff1602179055508073ffffffffffffffffffffffffffffffffffffffff167fc3ed467480c03780e2ec27d1db0b8101f06a31fc4b8dca9290c5511ec3b6df6b426040518082815260200191505060405180910390a250565b60008054906101000a900473ffffffffffffffffffffffffffffffffffffffff1681565b56fea2646970667358221220690c3561b8c12d4e73a4e16e4f2e6571a4f30de0d5064f6f629d227c2735f1f664736f6c634300060c0033",
  "immutableReferences": {},
  "source": "pragma solidity ^0.6.0;\n\nimport \"node_modules/@openzeppelin/contracts/token/ERC721/ERC721.sol\";\nimport \"node_modules/@openzeppelin/contracts/access/Ownable.sol\";\nimport \"@openzeppelin/contracts/math/SafeMath.sol\";\n\n\nimport \"contracts/interfaces/IAuctionERC721.sol\";\n\ncontract AuctionNft {\n\n  IAuctionERC721 public auctionERC721;\n\n  address private owner;\n  event NewAuctionERC721(address indexed _auctionERC721, uint _timestamp);\n\n  modifier onlyOwner() {\n    require(owner == msg.sender, \"you are not authorized for this\");\n    _;\n  }\n\n  constructor(address _auctionERC721)\n  public\n  {\n    setContractERC721(_auctionERC721);\n    owner = msg.sender;\n  }\n\n  //in the createauction function, we will send ownership of the tokenId to the contract itself\n  function createAuction() public {\n\n  }\n\n  function setContractERC721(address _auctionERC721)\n  public\n  onlyOwner\n  {\n    auctionERC721 = IAuctionERC721(_auctionERC721);\n    emit NewAuctionERC721(_auctionERC721, now);\n  }\n}\n",
  "sourcePath": "/home/thibault/Documents/Ethereum/ConsensysBootcamp/FinalProjectThibault/contracts/AuctionNft.sol",
  "compiler": {
    "name": "solc",
    "version": "0.6.12+commit.27d51765.Emscripten.clang"
  },
  "schemaVersion": "3.3.1",
  "updatedAt": "2020-11-03T12:45:54.006Z",
  "devdoc": {
    "kind": "dev",
    "methods": {},
    "version": 1
  },
  "userdoc": {
    "kind": "user",
    "methods": {},
    "version": 1
  }
}