{
  "contractName": "AuctionNft",
  "abi": [
    {
      "inputs": [
        {
          "internalType": "address",
          "name": "_auctionERC721",
          "type": "address"
        }
      ],
      "stateMutability": "nonpayable",
      "type": "constructor"
    },
    {
      "anonymous": false,
      "inputs": [
        {
          "indexed": false,
          "internalType": "uint256",
          "name": "_auctionId",
          "type": "uint256"
        }
      ],
      "name": "AuctionEnded",
      "type": "event"
    },
    {
      "anonymous": false,
      "inputs": [
        {
          "indexed": false,
          "internalType": "address",
          "name": "_bidder",
          "type": "address"
        }
      ],
      "name": "BidWithdrawn",
      "type": "event"
    },
    {
      "anonymous": false,
      "inputs": [
        {
          "indexed": false,
          "internalType": "address",
          "name": "_currentWinner",
          "type": "address"
        },
        {
          "indexed": false,
          "internalType": "uint256",
          "name": "_highestBid",
          "type": "uint256"
        }
      ],
      "name": "HighestBidIncreased",
      "type": "event"
    },
    {
      "anonymous": false,
      "inputs": [
        {
          "indexed": false,
          "internalType": "address",
          "name": "_auctioneer",
          "type": "address"
        },
        {
          "indexed": false,
          "internalType": "uint256",
          "name": "_auctionId",
          "type": "uint256"
        }
      ],
      "name": "NewAuctionCreated",
      "type": "event"
    },
    {
      "anonymous": false,
      "inputs": [
        {
          "indexed": true,
          "internalType": "address",
          "name": "_auctionERC721",
          "type": "address"
        },
        {
          "indexed": false,
          "internalType": "uint256",
          "name": "_timestamp",
          "type": "uint256"
        }
      ],
      "name": "NewAuctionERC721",
      "type": "event"
    },
    {
      "anonymous": false,
      "inputs": [
        {
          "indexed": false,
          "internalType": "address",
          "name": "_creator",
          "type": "address"
        },
        {
          "indexed": false,
          "internalType": "uint256",
          "name": "_auctionId",
          "type": "uint256"
        }
      ],
      "name": "NewAutionStarted",
      "type": "event"
    },
    {
      "anonymous": false,
      "inputs": [
        {
          "indexed": false,
          "internalType": "uint256",
          "name": "_tokenId",
          "type": "uint256"
        },
        {
          "indexed": false,
          "internalType": "address",
          "name": "_nftWinner",
          "type": "address"
        }
      ],
      "name": "NftWithdrawn",
      "type": "event"
    },
    {
      "inputs": [],
      "name": "auctionERC721",
      "outputs": [
        {
          "internalType": "contract IAuctionERC721",
          "name": "",
          "type": "address"
        }
      ],
      "stateMutability": "view",
      "type": "function"
    },
    {
      "inputs": [
        {
          "internalType": "uint256",
          "name": "",
          "type": "uint256"
        }
      ],
      "name": "auctions",
      "outputs": [
        {
          "internalType": "address",
          "name": "tokenERC721",
          "type": "address"
        },
        {
          "internalType": "address payable",
          "name": "auctioneer",
          "type": "address"
        },
        {
          "internalType": "address payable",
          "name": "currentWinner",
          "type": "address"
        },
        {
          "internalType": "uint256",
          "name": "auctionId",
          "type": "uint256"
        },
        {
          "internalType": "enum AuctionNft.AuctionStatus",
          "name": "auctionStatus",
          "type": "uint8"
        },
        {
          "internalType": "uint256",
          "name": "highestBid",
          "type": "uint256"
        },
        {
          "internalType": "uint256",
          "name": "startPrice",
          "type": "uint256"
        },
        {
          "internalType": "uint256",
          "name": "tokenId",
          "type": "uint256"
        },
        {
          "internalType": "bool",
          "name": "auctionComplete",
          "type": "bool"
        }
      ],
      "stateMutability": "view",
      "type": "function"
    },
    {
      "inputs": [
        {
          "internalType": "address",
          "name": "",
          "type": "address"
        },
        {
          "internalType": "address",
          "name": "",
          "type": "address"
        },
        {
          "internalType": "uint256",
          "name": "",
          "type": "uint256"
        },
        {
          "internalType": "bytes",
          "name": "",
          "type": "bytes"
        }
      ],
      "name": "onERC721Received",
      "outputs": [
        {
          "internalType": "bytes4",
          "name": "",
          "type": "bytes4"
        }
      ],
      "stateMutability": "nonpayable",
      "type": "function"
    },
    {
      "inputs": [
        {
          "internalType": "address",
          "name": "_tokenERC721",
          "type": "address"
        },
        {
          "internalType": "uint256",
          "name": "_startPrice",
          "type": "uint256"
        },
        {
          "internalType": "uint256",
          "name": "_tokenId",
          "type": "uint256"
        }
      ],
      "name": "createAuction",
      "outputs": [
        {
          "internalType": "uint256",
          "name": "_accountId",
          "type": "uint256"
        }
      ],
      "stateMutability": "nonpayable",
      "type": "function"
    },
    {
      "inputs": [
        {
          "internalType": "uint256",
          "name": "_auctionId",
          "type": "uint256"
        }
      ],
      "name": "bidAuction",
      "outputs": [],
      "stateMutability": "payable",
      "type": "function"
    },
    {
      "inputs": [
        {
          "internalType": "uint256",
          "name": "_auctionId",
          "type": "uint256"
        }
      ],
      "name": "endAuction",
      "outputs": [],
      "stateMutability": "nonpayable",
      "type": "function"
    },
    {
      "inputs": [
        {
          "internalType": "uint256",
          "name": "_auctionId",
          "type": "uint256"
        }
      ],
      "name": "withdrawNft",
      "outputs": [],
      "stateMutability": "nonpayable",
      "type": "function"
    },
    {
      "inputs": [
        {
          "internalType": "uint256",
          "name": "_auctionId",
          "type": "uint256"
        }
      ],
      "name": "withdrawBid",
      "outputs": [],
      "stateMutability": "nonpayable",
      "type": "function"
    },
    {
      "inputs": [
        {
          "internalType": "address",
          "name": "_auctionERC721",
          "type": "address"
        }
      ],
      "name": "setContractERC721",
      "outputs": [],
      "stateMutability": "nonpayable",
      "type": "function"
    }
  ],
  "bytecode": "0x608060405234801561001057600080fd5b5060405161183c38038061183c8339818101604052602081101561003357600080fd5b81019080805190602001909291905050506100538161009a60201b60201c565b33600460006101000a81548173ffffffffffffffffffffffffffffffffffffffff021916908373ffffffffffffffffffffffffffffffffffffffff160217905550506101ee565b3373ffffffffffffffffffffffffffffffffffffffff16600460009054906101000a900473ffffffffffffffffffffffffffffffffffffffff1673ffffffffffffffffffffffffffffffffffffffff161461015d576040517f08c379a000000000000000000000000000000000000000000000000000000000815260040180806020018281038252601f8152602001807f796f7520617265206e6f7420617574686f72697a656420666f7220746869730081525060200191505060405180910390fd5b806000806101000a81548173ffffffffffffffffffffffffffffffffffffffff021916908373ffffffffffffffffffffffffffffffffffffffff1602179055508073ffffffffffffffffffffffffffffffffffffffff167fc3ed467480c03780e2ec27d1db0b8101f06a31fc4b8dca9290c5511ec3b6df6b426040518082815260200191505060405180910390a250565b61163f806101fd6000396000f3fe6080604052600436106100865760003560e01c806364a7d7c71161005957806364a7d7c7146103325780638b3e491d14610360578063910efae8146103a1578063abb94051146103dc578063b9a2de3a1461045557610086565b80630eaaf4c81461008b5780631000f298146100c6578063150b7a0214610117578063571a26a01461025c575b600080fd5b34801561009757600080fd5b506100c4600480360360208110156100ae57600080fd5b8101908080359060200190929190505050610490565b005b3480156100d257600080fd5b50610115600480360360208110156100e957600080fd5b81019080803573ffffffffffffffffffffffffffffffffffffffff1690602001909291905050506107da565b005b34801561012357600080fd5b506102276004803603608081101561013a57600080fd5b81019080803573ffffffffffffffffffffffffffffffffffffffff169060200190929190803573ffffffffffffffffffffffffffffffffffffffff16906020019092919080359060200190929190803590602001906401000000008111156101a157600080fd5b8201836020820111156101b357600080fd5b803590602001918460018302840111640100000000831117156101d557600080fd5b91908080601f016020809104026020016040519081016040528093929190818152602001838380828437600081840152601f19601f82011690508083019250505050505050919291929050505061092e565b60405180827bffffffffffffffffffffffffffffffffffffffffffffffffffffffff1916815260200191505060405180910390f35b34801561026857600080fd5b506102956004803603602081101561027f57600080fd5b8101908080359060200190929190505050610942565b604051808a73ffffffffffffffffffffffffffffffffffffffff1681526020018973ffffffffffffffffffffffffffffffffffffffff1681526020018873ffffffffffffffffffffffffffffffffffffffff1681526020018781526020018660038111156102ff57fe5b81526020018581526020018481526020018381526020018215158152602001995050505050505050505060405180910390f35b61035e6004803603602081101561034857600080fd5b8101908080359060200190929190505050610a0a565b005b34801561036c57600080fd5b50610375610c6f565b604051808273ffffffffffffffffffffffffffffffffffffffff16815260200191505060405180910390f35b3480156103ad57600080fd5b506103da600480360360208110156103c457600080fd5b8101908080359060200190929190505050610c93565b005b3480156103e857600080fd5b5061043f600480360360608110156103ff57600080fd5b81019080803573ffffffffffffffffffffffffffffffffffffffff1690602001909291908035906020019092919080359060200190929190505050610fae565b6040518082815260200191505060405180910390f35b34801561046157600080fd5b5061048e6004803603602081101561047857600080fd5b8101908080359060200190929190505050611230565b005b610498611504565b60016000838152602001908152602001600020604051806101200160405290816000820160009054906101000a900473ffffffffffffffffffffffffffffffffffffffff1673ffffffffffffffffffffffffffffffffffffffff1673ffffffffffffffffffffffffffffffffffffffff1681526020016001820160009054906101000a900473ffffffffffffffffffffffffffffffffffffffff1673ffffffffffffffffffffffffffffffffffffffff1673ffffffffffffffffffffffffffffffffffffffff1681526020016002820160009054906101000a900473ffffffffffffffffffffffffffffffffffffffff1673ffffffffffffffffffffffffffffffffffffffff1673ffffffffffffffffffffffffffffffffffffffff168152602001600382015481526020016004820160009054906101000a900460ff1660038111156105e157fe5b60038111156105ec57fe5b81526020016005820154815260200160068201548152602001600782015481526020016008820160009054906101000a900460ff16151515158152505090506000600360003373ffffffffffffffffffffffffffffffffffffffff1673ffffffffffffffffffffffffffffffffffffffff16815260200190815260200160002060008481526020019081526020016000205414156106f2576040517f08c379a00000000000000000000000000000000000000000000000000000000081526004018080602001828103825260128152602001807f6e6f2062696420746f207769746864726177000000000000000000000000000081525060200191505060405180910390fd5b3373ffffffffffffffffffffffffffffffffffffffff166108fc600360003373ffffffffffffffffffffffffffffffffffffffff1673ffffffffffffffffffffffffffffffffffffffff1681526020019081526020016000206000858152602001908152602001600020549081150290604051600060405180830381858888f19350505050158015610788573d6000803e3d6000fd5b507fe4b292cd5a573e1d0cf3c41a161b96cd6639bf4523291e9efbd663177c99d74433604051808273ffffffffffffffffffffffffffffffffffffffff16815260200191505060405180910390a15050565b3373ffffffffffffffffffffffffffffffffffffffff16600460009054906101000a900473ffffffffffffffffffffffffffffffffffffffff1673ffffffffffffffffffffffffffffffffffffffff161461089d576040517f08c379a000000000000000000000000000000000000000000000000000000000815260040180806020018281038252601f8152602001807f796f7520617265206e6f7420617574686f72697a656420666f7220746869730081525060200191505060405180910390fd5b806000806101000a81548173ffffffffffffffffffffffffffffffffffffffff021916908373ffffffffffffffffffffffffffffffffffffffff1602179055508073ffffffffffffffffffffffffffffffffffffffff167fc3ed467480c03780e2ec27d1db0b8101f06a31fc4b8dca9290c5511ec3b6df6b426040518082815260200191505060405180910390a250565b600063150b7a0260e01b9050949350505050565b60016020528060005260406000206000915090508060000160009054906101000a900473ffffffffffffffffffffffffffffffffffffffff16908060010160009054906101000a900473ffffffffffffffffffffffffffffffffffffffff16908060020160009054906101000a900473ffffffffffffffffffffffffffffffffffffffff16908060030154908060040160009054906101000a900460ff16908060050154908060060154908060070154908060080160009054906101000a900460ff16905089565b600060016000838152602001908152602001600020905060016003811115610a2e57fe5b8160040160009054906101000a900460ff166003811115610a4b57fe5b14610abe576040517f08c379a000000000000000000000000000000000000000000000000000000000815260040180806020018281038252601b8152602001807f41756374696f6e206973206e6f74206269646162626c6520796574000000000081525060200191505060405180910390fd5b80600501543411610b37576040517f08c379a00000000000000000000000000000000000000000000000000000000081526004018080602001828103825260138152602001807f626964206e6f74206869676820656e6f7567680000000000000000000000000081525060200191505060405180910390fd5b6000816005015414610bca578060050154600360008360020160009054906101000a900473ffffffffffffffffffffffffffffffffffffffff1673ffffffffffffffffffffffffffffffffffffffff1673ffffffffffffffffffffffffffffffffffffffff1681526020019081526020016000206000848152602001908152602001600020600082825401925050819055505b348160050181905550338160020160006101000a81548173ffffffffffffffffffffffffffffffffffffffff021916908373ffffffffffffffffffffffffffffffffffffffff1602179055507ff4757a49b326036464bec6fe419a4ae38c8a02ce3e68bf0809674f6aab8ad3003334604051808373ffffffffffffffffffffffffffffffffffffffff1681526020018281526020019250505060405180910390a15050565b60008054906101000a900473ffffffffffffffffffffffffffffffffffffffff1681565b6000600160008381526020019081526020016000209050600115158160080160009054906101000a900460ff16151514610d35576040517f08c379a00000000000000000000000000000000000000000000000000000000081526004018080602001828103825260168152602001807f41756374696f6e206d757374206265206163746976650000000000000000000081525060200191505060405180910390fd5b8060020160009054906101000a900473ffffffffffffffffffffffffffffffffffffffff1673ffffffffffffffffffffffffffffffffffffffff163373ffffffffffffffffffffffffffffffffffffffff1614610ddd576040517f08c379a00000000000000000000000000000000000000000000000000000000081526004018080602001828103825260238152602001806115e76023913960400191505060405180910390fd5b8060000160009054906101000a900473ffffffffffffffffffffffffffffffffffffffff1673ffffffffffffffffffffffffffffffffffffffff166342842e0e303384600701546040518463ffffffff1660e01b8152600401808473ffffffffffffffffffffffffffffffffffffffff1681526020018373ffffffffffffffffffffffffffffffffffffffff1681526020018281526020019350505050600060405180830381600087803b158015610e9457600080fd5b505af1158015610ea8573d6000803e3d6000fd5b505050506000600360003373ffffffffffffffffffffffffffffffffffffffff1673ffffffffffffffffffffffffffffffffffffffff168152602001908152602001600020600084815260200190815260200160002081905550600380811115610f0e57fe5b8160040160009054906101000a900460ff166003811115610f2b57fe5b50507f86a3374ba35fb0c6f52fad391c301c68cb35fc2dfca56d552513608af2dc3d6c81600701548260020160009054906101000a900473ffffffffffffffffffffffffffffffffffffffff16604051808381526020018273ffffffffffffffffffffffffffffffffffffffff1681526020019250505060405180910390a15050565b6000610fb8611504565b6040518061012001604052808673ffffffffffffffffffffffffffffffffffffffff1681526020013373ffffffffffffffffffffffffffffffffffffffff168152602001600073ffffffffffffffffffffffffffffffffffffffff16815260200160025481526020016000600381111561102e57fe5b8152602001600081526020018581526020018481526020016000151581525090508060016000600254815260200190815260200160002060008201518160000160006101000a81548173ffffffffffffffffffffffffffffffffffffffff021916908373ffffffffffffffffffffffffffffffffffffffff16021790555060208201518160010160006101000a81548173ffffffffffffffffffffffffffffffffffffffff021916908373ffffffffffffffffffffffffffffffffffffffff16021790555060408201518160020160006101000a81548173ffffffffffffffffffffffffffffffffffffffff021916908373ffffffffffffffffffffffffffffffffffffffff1602179055506060820151816003015560808201518160040160006101000a81548160ff0219169083600381111561116857fe5b021790555060a0820151816005015560c0820151816006015560e082015181600701556101008201518160080160006101000a81548160ff0219169083151502179055509050506111ba60025461131f565b6002600081548092919060010191905055507f6761564db36e731a0f30bd12df9cbb4d1bf73acc82096f20663bf7dd993fdacb33600254604051808373ffffffffffffffffffffffffffffffffffffffff1681526020018281526020019250505060405180910390a16002549150509392505050565b60006001600083815260200190815260200160002090506001600381111561125457fe5b8160040160009054906101000a900460ff16600381111561127157fe5b146112c7576040517f08c379a00000000000000000000000000000000000000000000000000000000081526004018080602001828103825260248152602001806115c36024913960400191505060405180910390fd5b60018160080160006101000a81548160ff0219169083151502179055507f45806e512b1f4f10e33e8b3cb64d1d11d998d8c554a95e0841fc1c701278bd5d826040518082815260200191505060405180910390a15050565b60006001600083815260200190815260200160002090506000600381111561134357fe5b8160040160009054906101000a900460ff16600381111561136057fe5b146113b6576040517f08c379a00000000000000000000000000000000000000000000000000000000081526004018080602001828103825260238152602001806115a06023913960400191505060405180910390fd5b8060000160009054906101000a900473ffffffffffffffffffffffffffffffffffffffff1673ffffffffffffffffffffffffffffffffffffffff166342842e0e333084600701546040518463ffffffff1660e01b8152600401808473ffffffffffffffffffffffffffffffffffffffff1681526020018373ffffffffffffffffffffffffffffffffffffffff1681526020018281526020019350505050600060405180830381600087803b15801561146d57600080fd5b505af1158015611481573d6000803e3d6000fd5b5050505060018160040160006101000a81548160ff021916908360038111156114a657fe5b02179055507f0c939bc2073f9a9f6b24429d139e9599b426e04db3d057ac8f2cd90f4058970a3383604051808373ffffffffffffffffffffffffffffffffffffffff1681526020018281526020019250505060405180910390a15050565b604051806101200160405280600073ffffffffffffffffffffffffffffffffffffffff168152602001600073ffffffffffffffffffffffffffffffffffffffff168152602001600073ffffffffffffffffffffffffffffffffffffffff168152602001600081526020016000600381111561157b57fe5b8152602001600081526020016000815260200160008152602001600015158152509056fe41756374696f6e20697320616c7265616479206c697665206f722066696e697368656441756374696f6e206e6f74206269646461626c65206e6f72206372656174656420796574796f7520617265206e6f74207468652077696e6e65722c206e69636520747279203a29a264697066735822122046a9cc1b7e00059c89b4d4e7e3c21b7ab38ed4593c7ef3da5bc6341e447b761d64736f6c634300060c0033",
  "immutableReferences": {},
  "source": "pragma solidity ^0.6.0;\n\nimport \"node_modules/@openzeppelin/contracts/token/ERC721/IERC721.sol\";\nimport \"node_modules/@openzeppelin/contracts/access/Ownable.sol\";\nimport \"@openzeppelin/contracts/math/SafeMath.sol\";\n\n//below interface used for the AuctionNft contract to be able to receive AuctionNft\nimport \"@openzeppelin/contracts/token/ERC721/IERC721Receiver.sol\";\nimport \"@openzeppelin/contracts/token/ERC721/ERC721Holder.sol\";\nimport \"contracts/interfaces/IAuctionERC721.sol\";\n\ncontract AuctionNft is ERC721Holder{\n\n  //we get the address so that we can call the functions directly\n  IAuctionERC721 public auctionERC721;\n\n  //mapping of auctionId to AuctionDetails\n  mapping (uint256 => AuctionDetails) public auctions;\n\n  //counter for number of auctions\n  uint256 auctionCount;\n\n  // Allowed withdrawals of previous bids\n  // pull over push design\n  //\"a bidder can bid on different auctions a specific amount\"\n  mapping(address => mapping (uint256 => uint256)) pendingReturns;\n\n  //enum to check auction status\n  enum AuctionStatus { NotStarted, Bidding, EndAuction , AuctionClaimed}\n\n  struct AuctionDetails {\n    address tokenERC721;\n    address payable auctioneer;\n    address payable currentWinner;\n    //ERC721 nftContract; //will initially be the address provided by msg.sender when filling a box maybe so that nftContract: ERC721(address);\n    uint auctionId;\n    AuctionStatus auctionStatus;\n    uint256 highestBid;\n    uint256 startPrice;\n    uint256 tokenId;\n    bool auctionComplete;\n    //address[] bidders;\n    //uint minimumIncrement;\n    //variable for auction duration as well\n  }\n\n  address private owner;\n\n  event NewAuctionERC721(address indexed _auctionERC721, uint _timestamp);\n  event NewAuctionCreated(address _auctioneer, uint _auctionId);\n  event HighestBidIncreased(address _currentWinner, uint _highestBid);\n  event NewAutionStarted(address _creator, uint _auctionId);\n  event AuctionEnded(uint _auctionId);\n  event NftWithdrawn(uint _tokenId, address _nftWinner);\n  event BidWithdrawn(address _bidder);\n\n  modifier onlyOwner() {\n    require(owner == msg.sender, \"you are not authorized for this\");\n    _;\n  }\n\n  constructor(address _auctionERC721)\n  public\n  {\n    setContractERC721(_auctionERC721);\n    owner = msg.sender;\n  }\n\n  //either we are going to use the below or the transfer function\n\n  //present in ERC721Holder but will it work??\n  /*\n  function onERC721Received(address _operator, address _from, uint256 _tokenId, bytes _data)\n  external\n  returns(bytes4) {\n    return 0x150b7a02;\n  }\n  */\n\n  //in the createauction function, we will send ownership of the tokenId to the contract itself\n  function createAuction(address _tokenERC721, uint256 _startPrice, uint _tokenId)\n  public\n  returns (uint _accountId)\n  {\n    //require(auctionERC721.ownerOf(_tokenId) == msg.sender);\n\n    AuctionDetails memory newAuction = AuctionDetails({\n      tokenERC721 : _tokenERC721,\n      auctioneer : msg.sender,\n      currentWinner : address(0),\n      auctionId : auctionCount,\n      auctionStatus : AuctionStatus.NotStarted,\n      highestBid : 0,\n      startPrice : _startPrice,\n      tokenId : _tokenId,\n      auctionComplete : false\n      });\n    auctions[auctionCount] = newAuction;\n\n    //let's start the function internally first\n    //the transferFrom in the below function should succeed else the entire createAuction call will revert\n    startAuction(auctionCount);\n\n    auctionCount ++;\n    emit NewAuctionCreated(msg.sender, auctionCount);\n\n    return auctionCount;\n  }\n\n\n  function startAuction (uint _auctionId)\n  internal\n  {\n    AuctionDetails storage details = auctions[_auctionId];\n    require(details.auctionStatus == AuctionStatus.NotStarted, \"Auction is already live or finished\");\n    IERC721(details.tokenERC721).safeTransferFrom(msg.sender, address(this), details.tokenId); //not possible to use require here as safeTransferFrom doesn't return anything\n    //require(IERC721(details.tokenERC721).transferFrom(msg.sender, address(this), details.tokenId), \"token transfer failed\");\n    details.auctionStatus = AuctionStatus.Bidding;\n    emit NewAutionStarted(msg.sender, _auctionId);\n  }\n\n  function bidAuction (uint _auctionId)\n  external\n  payable\n  {\n    AuctionDetails storage details = auctions[_auctionId];\n    require(details.auctionStatus == AuctionStatus.Bidding, \"Auction is not bidabble yet\");\n    require(msg.value > details.highestBid, \"bid not high enough\");\n    if(details.highestBid != 0) {\n      pendingReturns[details.currentWinner][_auctionId] += details.highestBid;\n    }\n    details.highestBid = msg.value;\n    details.currentWinner = msg.sender;\n    emit HighestBidIncreased(msg.sender, msg.value);\n  }\n\n  function endAuction (uint _auctionId)\n  public\n  {\n    AuctionDetails storage details = auctions[_auctionId];\n    require(details.auctionStatus == AuctionStatus.Bidding, \"Auction not biddable nor created yet\");\n    details.auctionComplete = true;\n    emit AuctionEnded(_auctionId);\n  }\n\n  function withdrawNft (uint256 _auctionId)\n  public\n  {\n    AuctionDetails storage details = auctions[_auctionId];\n    require(details.auctionComplete == true, \"Auction must be active\");\n    require(msg.sender == details.currentWinner, \"you are not the winner, nice try :)\");\n    IERC721(details.tokenERC721).safeTransferFrom(address(this), msg.sender,  details.tokenId);\n    pendingReturns[msg.sender][_auctionId] = 0;\n    details.auctionStatus == AuctionStatus.AuctionClaimed;\n    emit NftWithdrawn(details.tokenId, details.currentWinner);\n    /* below might not be needed if we never push current winner bid into the pendingReturns mapping */\n    //require(pendingReturns[msg.sender] != 0, \"no bids placed\");\n    //pendingReturns[msg.sender] = 0;\n    //safeTransferFrom(details.auctioneer, msg.sender, details.tokenId);\n  }\n\n  function withdrawBid (uint256 _auctionId)\n  public\n  {\n    //to implement pull over push pattern\n    AuctionDetails memory details = auctions[_auctionId];\n    require(pendingReturns[msg.sender][_auctionId] != 0, \"no bid to withdraw\");\n    //bids[msg.sender] = 0;\n    //what happens to the current winner variable if highest bidder withdraw his/her bid??\n    msg.sender.transfer(pendingReturns[msg.sender][_auctionId]);\n    emit BidWithdrawn(msg.sender);\n  }\n\n  function setContractERC721(address _auctionERC721)\n  public\n  onlyOwner\n  {\n    auctionERC721 = IAuctionERC721(_auctionERC721);\n    emit NewAuctionERC721(_auctionERC721, now);\n  }\n\n}\n",
  "sourcePath": "/home/thibault/Documents/Ethereum/ConsensysBootcamp/FinalProjectThibault/contracts/AuctionNft.sol",
  "compiler": {
    "name": "solc",
    "version": "0.6.12+commit.27d51765.Emscripten.clang"
  },
  "schemaVersion": "3.3.1",
  "updatedAt": "2020-11-07T15:58:36.327Z",
  "devdoc": {
    "kind": "dev",
    "methods": {
      "onERC721Received(address,address,uint256,bytes)": {
        "details": "See {IERC721Receiver-onERC721Received}. Always returns `IERC721Receiver.onERC721Received.selector`."
      }
    },
    "version": 1
  },
  "userdoc": {
    "kind": "user",
    "methods": {},
    "version": 1
  }
}